:0200000480205A
:1000000000001020B52920806D16208071162080F8
:100010007116208071162080711620807116208044
:100020000000000000000000000000006D162080AD
:100030006D162080000000006D1620806D16208057
:10004000F50F2080D1102080AD112080E911208093
:10005000FD1120801112208025122080391220806D
:100060004D12208061122080091020801D102080F8
:100070003110208045102080591020806D10208084
:100080008110208095102080A9102080BD10208034
:10009000E5102080F91020800D1120802111208092
:1000A00035112080491120805D1120807111208040
:1000B0008511208099112080C1112080D5112080C8
:1000C000751220806D1620806D1620806D162080A0
:1000D0006D1620808D252080792520806D1620804A
:1000E0006D1620806D1620806D1620806D16208084
:1000F0006D1620806D1620806D1620806D16208074
:100100006D1620806D1620806D1620806D16208063
:100110006D1620806D1620806D162080E5282080C9
:100120006D1620806D1620806D1620806D16208043
:100130006D1620806D1620806D162080D5242080BD
:100140006D1620806D1620806D1620806D16208023
:100150006D1620806D1620806D1620806D16208013
:100160006D1620806D1620806D1620806D16208003
:100170006D1620806D1620806D1620806D162080F3
:100180006D1620806D1620806D1620806D162080E3
:100190006D1620806D1620806D1620806D162080D3
:1001A0006D1620806D1620806D1620806D162080C3
:1001B0006D1620806D1620806D1620806D162080B3
:1001C0006D1620806D1620806D1620806D162080A3
:1001D0006D162080393220806D1620806D162080AB
:1001E0006D1620806D1620806D1620806D16208083
:1001F0006D1620806D1620806D1620806D16208073
:100200006D1620806D1620806D1620806D16208062
:100210006D1620806D1620806D1620806D16208052
:100220006D1620806D1620806D1620806D16208042
:1002300059302080693020807930208089302080BA
:1002400099302080A9302080B9302080C9302080AA
:10025000E5202080F52020800521208015212080A8
:100260006D1620806D1620806D1620806D16208002
:100270006D16208039232080492320805923208037
:10028000692320806D1620806D1620806D162080D9
:100290006D1620806D1620806D1620806D162080D2
:1002A0006D1620806D1620806D1620806D162080C2
:1002B0006D1620806D1620806D1620806D162080B2
:1002C0006D1620806D1620806D1620806D162080A2
:1002D0006D1620806D1620806D1620806D16208092
:1002E0006D1620806D1620806D16208035242080AC
:1002F000492420805D242080712420808524208052
:1003000099242080AD242080C1242080751620806F
:10031000891620809D162080B1162080C516208069
:10032000D9162080ED16208001172080351A2080F4
:10033000491A20805D1A2080711A2080851A208039
:10034000991A2080AD1A2080C11A2080D51A2080E9
:10035000E91A2080FD1A2080111B2080251B208097
:10036000391B20804D1B2080611B2080751B208045
:10037000891B20809D1B2080B11B2080C51B2080F5
:10038000D91B2080ED1B2080011C2080151C2080A3
:10039000291C20803D1C2080511C2080651C208051
:1003A000791C20808D1C2080A11C2080B51C208001
:1003B000C91C2080DD1C2080F11C2080051D2080B0
:1003C000191D20802D1D2080411D2080551D20805D
:1003D000691D20807D1D2080911D2080A51D20800D
:1003E000B91D2080CD1D2080E11D2080F51D2080BD
:1003F000091E20801D1E2080311E2080451E208069
:10040000591E20806D1E2080811E2080951E208018
:10041000A91E2080BD1E2080D11E2080E51E2080C8
:10042000F91E20800D1F2080211F2080351F208075
:10043000491F20805D1F2080711F2080851F208024
:10044000991F2080AD1F2080C11F2080151720809C
:10045000291720803D1720805117208065172080A4
:10046000791720808D172080A1172080B517208054
:10047000C9172080DD172080F11720800518208003
:10048000191820802D1820804118208055182080B0
:10049000691820807D18208091182080A518208060
:1004A000B9182080CD182080E1182080F518208010
:1004B000091920801D1920803119208045192080BC
:1004C000591920806D19208081192080951920806C
:1004D000A9192080BD192080D1192080E51920801C
:1004E000F91920800D1A2080211A2080650D2080A6
:1004F000410E20801D0F2080590F20806D0F20801D
:10050000810F2080950F2080A90F2080BD0F2080B3
:10051000D10F2080790D20808D0D2080A10D2080AD
:10052000B50D2080C90D2080DD0D2080F10D2080CB
:10053000050E2080190E20802D0E2080550E208063
:10054000690E20807D0E2080910E2080A50E2080D7
:10055000B90E2080CD0E2080E10E2080F50E208087
:10056000090F2080310F2080450F2080E50F20806B
:100570006D162080550C20806D1620806D16208011
:100580006D1620806D1620806D1620806D162080DF
:100590006D1620806D1620806D1620805D162080DF
:1005A000550D2080090C20806D1620806D1620804E
:1005B0006D1620806D1620806D1620806D162080AF
:1005C0006D1620806D1620806D1620806D1620809F
:1005D0006D1620806D1620806D1620806D1620808F
:1005E0006D1620806D1620806D1620806D1620807F
:1007C00000F002F800F052F814A696E8000CB244CB
:1007D000B344DA4501D100F049F8BAE80F000FA69A
:1007E00096E83000A5EB040504EB0607AAEB070426
:1007F000A7F101074FEA15154FEA3414A4F10104DB
:10080000AC4201D300F032F813F0010F18BFFB1A0D
:1008100043F0010300F001F8DBE71847D86F000050
:1008200008700000103A24BF78C878C1FAD852077F
:1008300024BF30C830C144BF04680C60704700005A
:10084000704700000023002400250026103A28BF2E
:1008500078C1FBD8520728BF30C148BF0B60704732
:100860001FB506F09FFD1FBD10B510BD02F09EFE26
:10087000DFF80CD0FFF7F4FF04F080FF00F0ADF8D4
:100880000000102003B4FFF7EFFF03BC00F09EF858
:10089000032A40F2308010F0030C00F0158011F8AC
:1008A000013BBCF1020F624498BF11F801CB00F884
:1008B000013B38BF11F8013BA2F1040298BF00F8D8
:1008C00001CB38BF00F8013B11F0030300F04C806E
:1008D000083AC0F0088051F8043B083A51F804CBBC
:1008E000A0E80810F5E7121D5CBF51F8043B40F882
:1008F000043BAFF30080D20724BF11F8013B11F88D
:1009000001CB48BF11F8012B24BF00F8013B00F8D0
:1009100001CB48BF00F8012B70474FF0000200B533
:10092000134694469646203922BFA0E80C50A0E812
:100930000C50B1F12001BFF4F7AF090728BFA0E8C0
:100940000C5048BF0CC05DF804EB890028BF40F88C
:10095000042B08BF704748BF20F8022B11F0804FCE
:1009600018BF00F8012B704710B5203AC0F00B807B
:10097000B1E81850A0E81850B1E81850A0E8185095
:10098000203ABFF4F5AF5FEA027C24BFB1E818500B
:10099000A0E8185044BF18C918C0BDE810405FEA6D
:1009A000827C24BF51F8043B40F8043B08BF7047E9
:1009B000D20728BF31F8023B48BF11F8012B28BFEE
:1009C00020F8023B48BF00F8012B7047014918206E
:1009D000ABBEFEE726000200704710B50446AFF339
:1009E00000802046BDE81040FFF74CBF80B582B0C4
:1009F000019001994EF69050CEF2000000F002F8FE
:100A000002B080BD82B00190009100980199886089
:100A100001990020086102B070470000BFF35F8FAA
:100A20004EF62451CEF20001086820F480300860B0
:100A30004EF69451CEF20001086820F001000860E3
:100A4000BFF34F8FBFF36F8F7047000081B00090EE
:100A5000BFF35F8F009840F001004EF69451CEF244
:100A6000000108604EF62451CEF20001086840F4FF
:100A700080300860BFF34F8FBFF36F8F01B07047B6
:100A800080B584B00390029101920399029A019B70
:100A90004EF69050CEF2000000F002F804B080BD97
:100AA00080B588B0079006910592049302200390C8
:100AB000049801280AD1FFE70698079988600798EB
:100AC0000C300599022200F041F83CE0069820F035
:100AD00003000290069800F0030001900298079925
:100AE0008860FFE7019804990844052820D3FFE7B0
:100AF0000198C0F1040000900798019900EBC10033
:100B00000C300599009A520000F020F800990598E1
:100B100000EBC100059000990498401A0490002051
:100B20000190029804300290029807998860D9E7F2
:100B30000798019900EBC1000C300599049A520006
:100B400000F004F8FFE708B080BD000084B0039017
:100B50000291019200200090FFE7009801998842DD
:100B60000CD2FFE70298009A50F82200039941F84E
:100B70002200FFE7009801300090EEE704B07047D4
:100B800080B582B08DF807008DF806109DF807102B
:100B90009DF806204EF69050CEF2000000F002F8CC
:100BA00002B080BD84B003908DF80B108DF80A2040
:100BB0009DF80B0080088DF809009DF80B0000F0EF
:100BC0000300C00001900199FF20884000909DF82B
:100BD0000900022801D3FFE714E003989DF80910EB
:100BE00000EB8100006B009A90439DF80A10019B76
:100BF00099401140084403999DF8092001EB8201B6
:100C00000863FFE704B0704780B540F22000C2F2ED
:100C1000000000F027F880BD80B582B001900198F7
:100C2000006802F05FFD00900198406808B9FFE796
:100C30000EE09DF80000C00750B1FFE70198416841
:100C40000220884701980068012102F051FDFFE76A
:100C500002B080BD80B540F20000C2F20000FFF794
:100C6000DBFF80BD80B584B003900020029001902E
:100C700000900398406802F047FD00909DF8000046
:100C8000C00748B1FFE7029840F0010002900198C8
:100C900040F001000190FFE79DF80200C006002827
:100CA00009D5FFE7029840F480100290019840F0C7
:100CB00002000190FFE79DF80200C00748B1FFE77E
:100CC000029840F480300290019840F004000190B6
:100CD000FFE79DF80000C006002809D5FFE702984D
:100CE00040F010000290019840F008000190FFE7EA
:100CF0009DF800008006002809D5FFE7029840F023
:100D000020000290019840F010000190FFE79DF84C
:100D100000004006002809D5FFE7029840F0400097
:100D20000290019840F020000190FFE7019848B13F
:100D3000FFE70398006828B1FFE70398016801986E
:100D40008847FFE703984068029902F0E7FC04B087
:100D500080BD000080B540F24400C2F2000001F006
:100D600071FC80BD80B540F29C01C2F20001002000
:100D700000F012FB80BD000080B540F29C01C2F281
:100D800000010A2000F008FB80BD000080B540F2A1
:100D90009C01C2F200010B2000F0FEFA80BD0000B1
:100DA00080B540F29C01C2F200010C2000F0F4FA80
:100DB00080BD000080B540F29C01C2F200010D2010
:100DC00000F0EAFA80BD000080B540F29C01C2F25A
:100DD00000010E2000F0E0FA80BD000080B540F276
:100DE0009C01C2F200010F2000F0D6FA80BD000085
:100DF00080B540F29C01C2F20001102000F0CCFA54
:100E000080BD000080B540F29C01C2F200011120BB
:100E100000F0C2FA80BD000080B540F29C01C2F231
:100E20000001122000F0B8FA80BD000080B540F249
:100E30009C01C2F20001132000F0AEFA80BD000058
:100E400080B540F29C01C2F20001012000F0A4FA3A
:100E500080BD000080B540F29C01C2F20001142068
:100E600000F09AFA80BD000080B540F29C01C2F209
:100E70000001152000F090FA80BD000080B540F21E
:100E80009C01C2F20001162000F086FA80BD00002D
:100E900080B540F29C01C2F20001172000F07CFAFC
:100EA00080BD000080B540F29C01C2F20001182014
:100EB00000F072FA80BD000080B540F29C01C2F2E1
:100EC0000001192000F068FA80BD000080B540F2F2
:100ED0009C01C2F200011A2000F05EFA80BD000001
:100EE00080B540F29C01C2F200011B2000F054FAD0
:100EF00080BD000080B540F29C01C2F200011C20C0
:100F000000F04AFA80BD000080B540F29C01C2F2B8
:100F100000011D2000F040FA80BD000080B540F2C5
:100F20009C01C2F20001022000F036FA80BD0000F0
:100F300080B540F29C01C2F200011E2000F02CFAA4
:100F400080BD000080B540F29C01C2F200011F206C
:100F500000F022FA80BD000080B540F29C01C2F290
:100F60000001032000F018FA80BD000080B540F2B7
:100F70009C01C2F20001042000F00EFA80BD0000C6
:100F800080B540F29C01C2F20001052000F004FA95
:100F900080BD000080B540F29C01C2F20001062035
:100FA00000F0FAF980BD000080B540F29C01C2F269
:100FB0000001072000F0F0F980BD000080B540F28C
:100FC0009C01C2F20001082000F0E6F980BD00009B
:100FD00080B540F29C01C2F20001092000F0DCF96A
:100FE00080BD000080B540F29C00C2F2000000F01D
:100FF00049F980BD80B540F2DC61C2F200010020F9
:1010000000F0CAF980BD000080B540F2DC61C2F298
:1010100000010A2000F0C0F980BD000080B540F258
:10102000DC61C2F200010B2000F0B6F980BD0000C7
:1010300080B540F2DC61C2F200010C2000F0ACF996
:1010400080BD000080B540F2DC61C2F200010D20DD
:1010500000F0A2F980BD000080B540F2DC61C2F270
:1010600000010E2000F098F980BD000080B540F22C
:10107000DC61C2F200010F2000F08EF980BD00009B
:1010800080B540F2DC61C2F20001102000F084F96A
:1010900080BD000080B540F2DC61C2F20001112089
:1010A00000F07AF980BD000080B540F2DC61C2F248
:1010B0000001122000F070F980BD000080B540F200
:1010C000DC61C2F20001132000F066F980BD00006F
:1010D00080B540F2DC61C2F20001012000F05CF951
:1010E00080BD000080B540F2DC61C2F20001142036
:1010F00000F052F980BD000080B540F2DC61C2F220
:101100000001152000F048F980BD000080B540F2D4
:10111000DC61C2F20001162000F03EF980BD000043
:1011200080B540F2DC61C2F20001172000F034F912
:1011300080BD000080B540F2DC61C2F200011820E1
:1011400000F02AF980BD000080B540F2DC61C2F2F7
:101150000001192000F020F980BD000080B540F2A8
:10116000DC61C2F200011A2000F016F980BD000017
:1011700080B540F2DC61C2F200011B2000F00CF9E6
:1011800080BD000080B540F2DC61C2F200011C208D
:1011900000F002F980BD000080B540F2DC61C2F2CF
:1011A00000011D2000F0F8F880BD000080B540F27D
:1011B000DC61C2F20001022000F0EEF880BD000008
:1011C00080B540F2DC61C2F200011E2000F0E4F8BC
:1011D00080BD000080B540F2DC61C2F200011F203A
:1011E00000F0DAF880BD000080B540F2DC61C2F2A8
:1011F0000001032000F0D0F880BD000080B540F26F
:10120000DC61C2F20001042000F0C6F880BD0000DD
:1012100080B540F2DC61C2F20001052000F0BCF8AC
:1012200080BD000080B540F2DC61C2F20001062002
:1012300000F0B2F880BD000080B540F2DC61C2F27F
:101240000001072000F0A8F880BD000080B540F242
:10125000DC61C2F20001082000F09EF880BD0000B1
:1012600080B540F2DC61C2F20001092000F094F880
:1012700080BD000080B540F2DC60C2F2000000F0EA
:1012800001F880BD80B586B0059005988430049043
:10129000002002900598006802F02AFBA8B3FFE73F
:1012A00000208DF80700FFE79DF8070007282BDCDA
:1012B000FFE704989DF8071002F0F6FA03900498EF
:1012C0009DF8071002F002FB8DF80600039800F06D
:1012D00099F805989DF8061000EB8100406860B110
:1012E000FFE705989DF8061000EB8100426803981F
:1012F00090F9181002209047FFE7FFE79DF80700DC
:1013000001308DF80700CFE7FFE700208DF80700D8
:10131000FFE79DF8070007283BDCFFE7059800681A
:101320009DF8071002F0A2FA60B3FFE79DF80700EE
:101330000290059902A800F0EBF804989DF80710B8
:1013400002F0B2FA039004989DF8071002F0BEFA7A
:101350008DF80600039800F055F805989DF80610E2
:1013600000EB8100406860B1FFE705989DF806102A
:1013700000EB81004268039890F918100220904712
:10138000FFE7FFE7FFE79DF8070001308DF8070052
:10139000BFE706B080BD000080B586B08DF81700AD
:1013A000049104988430039003989DF81710084422
:1013B00090F880058DF80700049800689DF81710D4
:1013C00002F014FA03989DF8071002F06DFA0290EB
:1013D000029800F017F804989DF8171000EB8100B0
:1013E000406860B1FFE704989DF8171000EB81009A
:1013F0004268029890F9181001209047FFE706B064
:1014000080BD000080B58AB000900098006828B1C7
:10141000FFE700980068022878D1FFE7009800698C
:1014200000F032FE01460098806802910190029817
:10143000019901F08FFA002862D0FFE70198B0F51A
:10144000003F29DAFFE70299019806910590059877
:10145000012820DBFFE70598069901F01F010844E9
:10146000049006980390BFF34F8FFFE703984EF662
:101470005C71CEF20001086003982030039004985C
:101480002038049004980028F0DCFFE7BFF34F8F6A
:10149000BFF36F8FFFE732E04EF68451CEF20001CA
:1014A00000200860BFF34F8F4EF68050CEF2000050
:1014B000006809900998C0F34E300890FFE709983A
:1014C000C0F3C9000790FFE708990798800761F308
:1014D0004D104EF67471CEF2000108600798411E5F
:1014E000079108B12FF011C00898411E089108B16A
:1014F0002FF01BC8BFF34F8FBFF36F8FFFE704E0E0
:10150000BFF34F8FBFF36F8FFFE7FFE70AB080BDD8
:1015100080B58CB00A900991099884300890002019
:101520008DF817000DF11701019102900120039031
:101530000998D0F82C064008C00720B9FFE74FF003
:10154000FF300B9087E00A9820B9FFE76FF00400A6
:101550000B9080E00A980068082806DCFFE70A98EC
:101560000068B0F1FF3F04DCFFE76FF006000B906E
:1015700071E072B60A9800688DF8160008989DF818
:10158000161002F0A3F98DF81500099800689DF86F
:10159000161002F079F90490049820B9FFE762B6BA
:1015A00000200B9057E00998006802F033F928B149
:1015B000FFE762B66FF001000B904CE001A802F06B
:1015C00021F9002207929DF817008DF81E009DF862
:1015D00016109DF81D0001F0070100F0F800084406
:1015E0008DF81D009DF81C0040F001008DF81C00D6
:1015F00009980068079902F027F9FFE70998006841
:101600009DF8161002F040F90490049808B9FFE71D
:1016100000E0F3E7099800689DF8151002F004F95E
:10162000099800689DF8151002F0E0F80998D0F8C4
:1016300034069DF81510084401F05EFF08989DF8E7
:10164000161002F031F906900698FFF7DBFE62B63D
:1016500000200B90FFE70B980CB080BD80B540F6E2
:101660002C50C2F2000001F0B3F880BDFFE7FEE7A6
:10167000FFE7FEE780B540F65450C2F200000021BB
:1016800000F0DAFC80BD000080B540F65450C2F294
:101690000000012100F0D0FC80BD000080B540F6C4
:1016A0005450C2F20000022100F0C6FC80BD0000D0
:1016B00080B540F65450C2F20000032100F0BCFC9B
:1016C00080BD000080B540F65450C2F200000421F5
:1016D00000F0B2FC80BD000080B540F65450C2F26C
:1016E0000000052100F0A8FC80BD000080B540F698
:1016F0005450C2F20000062100F09EFC80BD0000A4
:1017000080B540F65450C2F20000072100F094FC6E
:1017100080BD000080B540F6BC50C2F20000002140
:1017200000F08AFC80BD000080B540F6BC50C2F2DB
:101730000000012100F080FC80BD000080B540F673
:10174000BC50C2F20000022100F076FC80BD000017
:1017500080B540F6BC50C2F20000032100F06CFCE2
:1017600080BD000080B540F6BC50C2F200000421EC
:1017700000F062FC80BD000080B540F6BC50C2F2B3
:101780000000052100F058FC80BD000080B540F647
:10179000BC50C2F20000062100F04EFC80BD0000EB
:1017A00080B540F6BC50C2F20000072100F044FCB6
:1017B00080BD000080B540F62460C2F20000002128
:1017C00000F03AFC80BD000080B540F62460C2F213
:1017D0000000012100F030FC80BD000080B540F623
:1017E0002460C2F20000022100F026FC80BD00004F
:1017F00080B540F62460C2F20000032100F01CFC1A
:1018000080BD000080B540F62460C2F200000421D3
:1018100000F012FC80BD000080B540F62460C2F2EA
:101820000000052100F008FC80BD000080B540F6F6
:101830002460C2F20000062100F0FEFB80BD000023
:1018400080B540F62460C2F20000072100F0F4FBEE
:1018500080BD000080B540F68C60C2F2000000211F
:1018600000F0EAFB80BD000080B540F68C60C2F25B
:101870000000012100F0E0FB80BD000080B540F6D3
:101880008C60C2F20000022100F0D6FB80BD000097
:1018900080B540F68C60C2F20000032100F0CCFB62
:1018A00080BD000080B540F68C60C2F200000421CB
:1018B00000F0C2FB80BD000080B540F68C60C2F233
:1018C0000000052100F0B8FB80BD000080B540F6A7
:1018D0008C60C2F20000062100F0AEFB80BD00006B
:1018E00080B540F68C60C2F20000072100F0A4FB36
:1018F00080BD000080B540F6F460C2F20000002117
:1019000000F09AFB80BD000080B540F6F460C2F2A2
:101910000000012100F090FB80BD000080B540F682
:10192000F460C2F20000022100F086FB80BD0000DE
:1019300080B540F6F460C2F20000032100F07CFBA9
:1019400080BD000080B540F6F460C2F200000421C2
:1019500000F072FB80BD000080B540F6F460C2F27A
:101960000000052100F068FB80BD000080B540F656
:10197000F460C2F20000062100F05EFB80BD0000B2
:1019800080B540F6F460C2F20000072100F054FB7D
:1019900080BD000080B540F65C70C2F200000021FE
:1019A00000F04AFB80BD000080B540F65C70C2F2DA
:1019B0000000012100F040FB80BD000080B540F632
:1019C0005C70C2F20000022100F036FB80BD000016
:1019D00080B540F65C70C2F20000032100F02CFBE1
:1019E00080BD000080B540F65C70C2F200000421AA
:1019F00000F022FB80BD000080B540F65C70C2F2B2
:101A00000000052100F018FB80BD000080B540F605
:101A10005C70C2F20000062100F00EFB80BD0000E9
:101A200080B540F65C70C2F20000072100F004FBB4
:101A300080BD000080B540F6C470C2F200000021F5
:101A400000F0FAFA80BD000080B540F6C470C2F222
:101A50000000012100F0F0FA80BD000080B540F6E2
:101A6000C470C2F20000022100F0E6FA80BD00005E
:101A700080B540F6C470C2F20000032100F0DCFA29
:101A800080BD000080B540F6C470C2F200000421A1
:101A900000F0D2FA80BD000080B540F6C470C2F2FA
:101AA0000000052100F0C8FA80BD000080B540F6B6
:101AB000C470C2F20000062100F0BEFA80BD000032
:101AC00080B540F6C470C2F20000072100F0B4FAFD
:101AD00080BD000080B541F22C00C2F20000002160
:101AE00000F0AAFA80BD000080B541F22C00C2F2DD
:101AF0000000012100F0A0FA80BD000080B541F295
:101B00002C00C2F20000022100F096FA80BD000015
:101B100080B541F22C00C2F20000032100F08CFAE3
:101B200080BD000080B541F22C00C2F2000004210B
:101B300000F082FA80BD000080B541F22C00C2F2B4
:101B40000000052100F078FA80BD000080B541F268
:101B50002C00C2F20000062100F06EFA80BD0000E9
:101B600080B541F22C00C2F20000072100F064FAB7
:101B700080BD000080B541F29400C2F20000002157
:101B800000F05AFA80BD000080B541F29400C2F224
:101B90000000012100F050FA80BD000080B541F244
:101BA0009400C2F20000022100F046FA80BD00005D
:101BB00080B541F29400C2F20000032100F03CFA2B
:101BC00080BD000080B541F29400C2F20000042103
:101BD00000F032FA80BD000080B541F29400C2F2FC
:101BE0000000052100F028FA80BD000080B541F218
:101BF0009400C2F20000062100F01EFA80BD000031
:101C000080B541F29400C2F20000072100F014FAFE
:101C100080BD000080B541F2FC00C2F2000000214E
:101C200000F00AFA80BD000080B541F2FC00C2F26B
:101C30000000012100F000FA80BD000080B541F2F3
:101C4000FC00C2F20000022100F0F6F980BD0000A5
:101C500080B541F2FC00C2F20000032100F0ECF973
:101C600080BD000080B541F2FC00C2F200000421FA
:101C700000F0E2F980BD000080B541F2FC00C2F244
:101C80000000052100F0D8F980BD000080B541F2C8
:101C9000FC00C2F20000062100F0CEF980BD000079
:101CA00080B541F2FC00C2F20000072100F0C4F947
:101CB00080BD000080B541F26410C2F20000002136
:101CC00000F0BAF980BD000080B541F26410C2F2A4
:101CD0000000012100F0B0F980BD000080B541F2A4
:101CE0006410C2F20000022100F0A6F980BD0000DD
:101CF00080B541F26410C2F20000032100F09CF9AB
:101D000080BD000080B541F26410C2F200000421E1
:101D100000F092F980BD000080B541F26410C2F27B
:101D20000000052100F088F980BD000080B541F277
:101D30006410C2F20000062100F07EF980BD0000B0
:101D400080B541F26410C2F20000072100F074F97E
:101D500080BD000080B541F2CC10C2F2000000212D
:101D600000F06AF980BD000080B541F2CC10C2F2EB
:101D70000000012100F060F980BD000080B541F253
:101D8000CC10C2F20000022100F056F980BD000024
:101D900080B541F2CC10C2F20000032100F04CF9F2
:101DA00080BD000080B541F2CC10C2F200000421D9
:101DB00000F042F980BD000080B541F2CC10C2F2C3
:101DC0000000052100F038F980BD000080B541F227
:101DD000CC10C2F20000062100F02EF980BD0000F8
:101DE00080B541F2CC10C2F20000072100F024F9C6
:101DF00080BD000080B541F23420C2F20000002115
:101E000000F01AF980BD000080B541F23420C2F222
:101E10000000012100F010F980BD000080B541F202
:101E20003420C2F20000022100F006F980BD00005B
:101E300080B541F23420C2F20000032100F0FCF82A
:101E400080BD000080B541F23420C2F200000421C0
:101E500000F0F2F880BD000080B541F23420C2F2FB
:101E60000000052100F0E8F880BD000080B541F2D7
:101E70003420C2F20000062100F0DEF880BD000030
:101E800080B541F23420C2F20000072100F0D4F8FE
:101E900080BD000080B541F29C20C2F2000000210C
:101EA00000F0CAF880BD000080B541F29C20C2F26B
:101EB0000000012100F0C0F880BD000080B541F2B3
:101EC0009C20C2F20000022100F0B6F880BD0000A4
:101ED00080B541F29C20C2F20000032100F0ACF872
:101EE00080BD000080B541F29C20C2F200000421B8
:101EF00000F0A2F880BD000080B541F29C20C2F243
:101F00000000052100F098F880BD000080B541F286
:101F10009C20C2F20000062100F08EF880BD000077
:101F200080B541F29C20C2F20000072100F084F845
:101F300080BD000080B541F20430C2F200000021F3
:101F400000F07AF880BD000080B541F20430C2F2A2
:101F50000000012100F070F880BD000080B541F262
:101F60000430C2F20000022100F066F880BD0000DB
:101F700080B541F20430C2F20000032100F05CF8A9
:101F800080BD000080B541F20430C2F2000004219F
:101F900000F052F880BD000080B541F20430C2F27A
:101FA0000000052100F048F880BD000080B541F236
:101FB0000430C2F20000062100F03EF880BD0000AF
:101FC00080B541F20430C2F20000072100F034F87D
:101FD00080BD000080B582B001900198006802F0D9
:101FE00033FC8DF8030000208DF80200FFE79DF818
:101FF000020007281ED8FFE79DF803009DF8021095
:10200000C840C00778B1FFE7019800689DF802104A
:1020100002F008FC01989DF8021000EB8100816C31
:1020200001208847FFE7FFE79DF8020001308DF8A7
:102030000200DCE702B080BD80B582B001908DF86F
:1020400003100198C06AC0B9FFE7019800689DF8C5
:10205000031002F0E7FB01989DF8031000EB8100EC
:10206000806C48B1FFE701989DF8031000EB8100F8
:10207000816C01208847FFE703E00198FFF7AAFF82
:10208000FFE702B080BD000083B00190019800908E
:102090000098B0F1A14F0DD3FFE700984FF6FF7104
:1020A000C5F28F01884205D8FFE70098A0F14250A1
:1020B000029014E00098B0F1A04F0DD3FFE7009814
:1020C0004FF6FF71C5F20301884205D8FFE700987B
:1020D00000F13040029002E000980290FFE7029881
:1020E00003B0704780B541F26C30C2F2000000F0DE
:1020F000E3F880BD80B541F2E030C2F2000000F0AC
:10210000DBF880BD80B541F25440C2F2000000F01F
:10211000D3F880BD80B541F2C840C2F2000000F0A3
:10212000CBF880BD80B584B0039003981030029046
:102130000398083001900298806BC00750B1FFE708
:102140000199086820F001000860039801680120E7
:102150008847ACE00298806B8006002805D5FFE731
:102160000398016820208847A0E00298806BC00592
:10217000002806D5FFE7039801684FF48070884770
:1021800093E00298806B400700280AD5FFE7039888
:102190000168042088470199086820F00100086060
:1021A00082E00298806B000700280AD5FFE70398B9
:1021B0000168082088470199086820F0010008603C
:1021C00071E00298806BC00600280AD5FFE70398EB
:1021D0000168102088470199086820F00100086014
:1021E00060E00298806B400600280FD5FFE7019958
:1021F000086840F010000860039801684020884794
:102200000199086820F0010008604AE00298806B9C
:10221000000600280FD5FFE70199086840F020006C
:10222000086003980168802088470199086820F0B9
:102230000100086034E00298806B800700280AD50E
:10224000FFE703980168022088470199086820F099
:102250000100086023E00298806B800500280BD500
:10226000FFE7039801684FF40070884701990868F8
:1022700020F00100086011E00298806B4005002802
:102280000BD5FFE7039801684FF4806088470199F8
:10229000086820F001000860FFE7FFE7FFE7FFE7BD
:1022A000FFE7FFE7FFE7FFE7FFE7FFE7FFE7029949
:1022B0000020886304B080BD80B582B00190019891
:1022C00010300090019890F86C00012817D1FFE7BA
:1022D0000098006B012806D1FFE70198406800993B
:1022E00002F00CFDFFE70098006B022806D1FFE723
:1022F00001984068009902F04BFBFFE716E0009858
:10230000006B032806D1FFE701984068009902F0AE
:1023100027FFFFE70098006B042806D1FFE701982C
:102320004068009902F08AFEFFE7FFE70198FFF797
:10233000F9FE02B080BD000080B541F25850C2F2F3
:10234000000000F019F880BD80B541F2B850C2F22B
:10235000000000F011F880BD80B541F21860C2F2B3
:10236000000000F009F880BD80B541F27860C2F24B
:10237000000000F001F880BD80B582B001900198A6
:102380002030009001984068C007D0B1FFE7019865
:102390004069009903F0CCF800988069C00778B1D3
:1023A000FFE70199486820F00100486000998869BA
:1023B00020F0010088610198016801208847FFE74B
:1023C000FFE7019840684008C00780B3FFE7019825
:1023D0004069009902F086FF009880698007002814
:1023E0000FD5FFE70199486820F002004860009986
:1023F000886920F0020088610198016802208847FE
:10240000FFE700988069400700280FD5FFE7009993
:10241000886920F0040088610199486840F008004C
:1024200048600198016808208847FFE7FFE702B08D
:1024300080BD000080B541F2BC60C2F20000002106
:10244000FFF7FAFD80BD000080B541F2BC60C2F22A
:1024500000000121FFF7F0FD80BD000080B541F2D2
:10246000BC60C2F200000221FFF7E6FD80BD000063
:1024700080B541F2BC60C2F200000321FFF7DCFD31
:1024800080BD000080B541F2BC60C2F200000421B2
:10249000FFF7D2FD80BD000080B541F2BC60C2F202
:1024A00000000521FFF7C8FD80BD000080B541F2A6
:1024B000BC60C2F200000621FFF7BEFD80BD000037
:1024C00080B541F2BC60C2F200000721FFF7B4FD05
:1024D00080BD00007047000083B00190019800901B
:1024E0000098B0F1005F0CD3FFE70098400E102871
:1024F00007D8FFE7009820F07F4000F1A14002904C
:102500000EE000990020B0EB516F06D1FFE7009874
:10251000502161F31F60029002E000980290FFE7F3
:10252000029803B07047000083B0019001980090BA
:102530000098B0F1005F0CD3FFE70098400E102820
:1025400007D8FFE7009820F07F4000F1A1400290FB
:102550000EE000990020B0EB516F06D1FFE7009824
:10256000502161F31F60029002E000980290FFE7A3
:10257000029803B07047000080B542F68410C2F2A2
:10258000000041680020884780BD000080B542F609
:102590008410C2F2000081680020884780BD0000DE
:1025A00080B588B0069005910492069803F05CF916
:1025B00018B9FFE70420079041E00598022803D3EB
:1025C000FFE7042007903AE005980290069803F090
:1025D00079F944F24020C0F20F000390FFE703981E
:1025E00058B1FFE7069803F04DF908B1FFE704E0A2
:1025F000FFE7039801380390F1E7039830B9FFE74C
:10260000069803F04DF90120079018E0FFE70698BF
:1026100002F0FAF801900198029900EB41110120B3
:1026200048610199029A01EB42118861049801996D
:10263000029A01EB4211C86000200790FFE707985B
:1026400008B080BD80B584B0039000200290019056
:102650000398006801F09CF802900398406828B93C
:10266000FFE70398006900F061FFFFE79DF80800AD
:10267000C00748B1FFE70398006801F0AFF8019880
:1026800040F001000190FFE79DF808008007002856
:1026900009D5FFE70398006801F098F8019840F029
:1026A00002000190FFE79DF808004007002809D5C7
:1026B000FFE70398006801F04BF8019840F0200014
:1026C0000190FFE79DF808000007002809D5FFE703
:1026D0000398006801F054F8019840F04000019020
:1026E000FFE79DF80800C006002809D5FFE703981A
:1026F000006801F035F8019840F080000190FFE794
:102700009DF808008006002809D5FFE703980068B7
:1027100001F02EF8019840F480700190FFE79DF8D9
:1027200008004006002809D5FFE70398006800F07C
:10273000FFFF019840F400700190FFE79DF808004A
:102740000006002809D5FFE70398006800F0F8FFAD
:10275000019840F480600190FFE79DF80A00C007EF
:1027600048B1FFE70398006801F020F8019840F0B5
:1027700004000190FFE79DF80A008007002809D5B2
:10278000FFE70398006801F019F8019840F008008D
:102790000190FFE79DF80A004007002809D5FFE7F0
:1027A0000398006800F0FAFF019840F010000190D3
:1027B000FFE7019848B1FFE70398406828B1FFE7B9
:1027C0000398416801988847FFE704B080BD000086
:1027D00080B582B001900198006801F091F80090F6
:1027E000BDF8000028B1FFE7019841680120884743
:1027F000FFE79DF8020010F01B0F05D0FFE70198DE
:10280000416802208847FFE70198006801F080F8DE
:1028100000909DF80000400628B1FFE7019841684C
:1028200004208847FFE7009841F68071C0F2080154
:10283000084205D0FFE70198416808208847FFE774
:1028400002B080BD80B584B04EF69050CEF200004C
:10285000039003980068000A029000200190FFE7AF
:1028600001980299884208D2FFE70198FEF7BEF866
:10287000FFE7019801300190F2E704B080BD00004D
:1028800080B582B0002001902221FEF779F9012065
:102890000421FEF775F90220FF21FEF771F90320EC
:1028A000AA21FEF76DF9019847F2C431C8F2200160
:1028B0000922FEF7E5F802B080BD000080B54EF6B3
:1028C0009450CEF200000068C00718B1FFE7FEF791
:1028D000A5F8FFE7FFF7B6FFFFF7D2FF0620FEF7E8
:1028E000B5F880BD80B541F6A010C2F2000001F03D
:1028F0006DF880BD87B0039002910398069006980A
:10290000059005990120B1F1007F019011D3FFE7F7
:1029100005990020B1F1005F009007D9FFE7059805
:10292000B0F1085F5FEA2F900090FFE700980190F8
:10293000FFE70198C00720B1FFE700208DF81300E2
:1029400003E001208DF81300FFE79DF8130007B0A6
:102950007047000087B00390029103980690069894
:10296000059005990120B1F1007F019011D3FFE797
:1029700005990020B1F1005F009007D9FFE70598A5
:10298000B0F1085F5FEA2F900090FFE70098019098
:10299000FFE70198C00720B1FFE700208DF8130082
:1029A00003E001208DF81300FFE79DF8130007B046
:1029B000704700000348044980F30A8881F30888BF
:1029C00000F004F800E00F200000102000F028FACA
:1029D000FDF7F6FE4EF6D851CEF200010020086059
:1029E00044F20000C2F2000020F01F004EF6DC515D
:1029F000CEF20001086048F20000C2F20000411E61
:102A0000012060F304014EF6E052CEF200021160A4
:102A10004EF6D051CEF200010860704780B58AB002
:102A2000DDF830C00990089107920693FFE741F660
:102A3000F010C2F20000029002980078532803D0F0
:102A4000FFE700F0FDFBFFE7FFE741F6F010C2F201
:102A500000000490099801282AD8FFE7EFF31180BD
:102A60004FF0200181F3118801900498099901EB3E
:102A7000410100EBC10018300390099878B1FFE7DD
:102A80000898039908600798039948600698039985
:102A900088600399002008610399C860FFE70C98DB
:102AA00003994861019880F311880020059003E0A4
:102AB0004FF0FF300590FFE705980AB080BD000099
:102AC00080B500F0BDFB80BD80B586B00590049157
:102AD0000392EFF311804FF0200181F311880190F0
:102AE00005980499039A00F007F80290019880F382
:102AF0001188029806B080BD80B58EB00D900C9103
:102B00000B92FFE741F6F010C2F200000390039829
:102B10000078532803D0FFE700F092FBFFE7FFE7C0
:102B20000D9800EB400141F6F010C2F2000000EBFE
:102B3000C100483005900C980690059800690890EF
:102B40000598C06807900020099008980799884266
:102B500036D9FFE7059880680899401A0A900A98C4
:102B60000B99884203D2FFE70A98029002E00B9883
:102B70000290FFE702980A90059840680899084477
:102B80000490069804990A9AFDF782FE0A9909981A
:102B9000084409900A990698084406900A990B98E7
:102BA000401A0B900A9908980844089008980599CB
:102BB0008968884203D1FFE700200890FFE7FFE71C
:102BC00007980899401A0A900A980B99884203D2EC
:102BD000FFE70A98019002E00B980190FFE7019847
:102BE0000A900A98D8B1FFE7059840680899084408
:102BF0000490069804990A9AFDF74AFE0A990998E2
:102C0000084409900A990698084406900A990B9876
:102C1000401A0B900A99089808440890FFE7099811
:102C200020B1FFE7089805990861FFE709980EB001
:102C300080BD000080B588B007900691FFE741F69F
:102C4000F010C2F20000029002980078532803D0DE
:102C5000FFE700F0F5FAFFE7FFE741F6F010C2F2F8
:102C6000000004900798C0B9FFE7EFF311804FF020
:102C7000200181F3118801900498079901EB41012B
:102C800000EBC10048300390069803990860019852
:102C900080F311880020059003E04FF0FF3005908D
:102CA000FFE7059808B080BD80B588B00790069111
:102CB000FFE741F6F010C2F200000290029800789F
:102CC000532803D0FFE700F0BBFAFFE7FFE741F628
:102CD000F010C2F2000004900798012818D8FFE70E
:102CE000EFF311804FF0200181F3118801900498D7
:102CF000079901EB410100EBC100183003900698E1
:102D000003990860019880F311880020059003E082
:102D10004FF0FF300590FFE7059808B080BD000038
:102D200080B586B0059004910392FFE741F6F0105C
:102D3000C2F20000019001980078532803D0FFE709
:102D400000F07EFAFFE7FFE7EFF311804FF020017C
:102D500081F31188009005980499039A00F008F80F
:102D60000290009880F31188029806B080BD0000A0
:102D700080B58AB009900891079208980490099844
:102D800000EB400141F6F010C2F2000000EBC10080
:102D90001830039003984069029040B1FFE7029811
:102DA000012819D0FFE7029802282CD032E00398BE
:102DB00000F09AFA059005980799884203D2FFE738
:102DC0000020069007E00798069003980499079A58
:102DD00000F01CFBFFE720E0039800F085FA059067
:102DE00005980799884203D2FFE70598019002E011
:102DF00007980190FFE70198069003980499069AB6
:102E000000F004FB09E003980499079A00F08CFA9B
:102E1000069002E000200690FFE706980AB080BD09
:102E200080B540F20000C8F220004EF60851CEF204
:102E3000000108604EF62451CEF20001086840F40B
:102E40007020086000F03EF844F20001C1F66021F5
:102E5000086820F4807008604EF68851CEF20001B8
:102E6000086840F4700008604EF20401CEF20101DF
:102E700040F2E5200860FFF721FD4EF61451CEF236
:102E80000001086840F4302008604EF20801CEF2DC
:102E90000001086820F020000860BFF34F8FBFF3E7
:102EA0006F8F02F0C5FC41F22471C2F2000148F2BA
:102EB0000040C1F2D770086000F03CFD00F030FD2A
:102EC00080BD0000704700008DB04EF20450CEF27D
:102ED0000100006800F00F0001900198411D0120E1
:102EE00000FA01F103914EF20461CEF2010109688A
:102EF00001F00F01019101990531884002900020F5
:102F00000090FFE70098002840F0A480FFE70098B9
:102F100000EB400147F25470C8F2200000EB810042
:102F20008068012821D1FFE7009800EB400147F2BB
:102F30005470C8F2200050F8211001F16041029A4B
:102F4000B1FBF2F10C91009901EB410100EB810022
:102F5000406800F160400299B0FBF1F00B904EF236
:102F60000060CEF2010004901CE0009800EB4001EC
:102F700047F25470C8F2200050F82110039AB1FBB8
:102F8000F2F10C91009901EB410100EB81004068E6
:102F90000399B0FBF1F00B904EF20050CEF201001D
:102FA0000490FFE70C9840090A900B98400909909B
:102FB0000C9800F01F0008900B9800F01F0007907D
:102FC0000A980999884214D1FFE70798C0F11F00B9
:102FD0004FF0FF3121FA00F0089A91400840069026
:102FE000069A04980A9900EB810108691043086168
:102FF0002BE008994FF0FF3000FA01F10691079994
:10300000C1F11F01C8400590069804990A9A01EB86
:1030100082010861FFE70A980999013988420BD0BB
:10302000FFE70A9801300A9004980A9900EB8101A1
:103030004FF0FF300861EEE7059A0498099900EB1C
:103040008101086910430861FFE7FFE7009801303C
:10305000009057E70DB0704780B541F22870C2F27A
:10306000000000F039F880BD80B541F27470C2F202
:10307000000000F031F880BD80B541F2C070C2F2AE
:10308000000000F029F880BD80B541F60C00C2F2C6
:10309000000000F021F880BD80B541F65800C2F272
:1030A000000000F019F880BD80B541F6A400C2F21E
:1030B000000000F011F880BD80B541F6F000C2F2CA
:1030C000000000F009F880BD80B541F63C10C2F266
:1030D000000000F001F880BD80B584B00390039833
:1030E000083002900020019003980068029902F0D5
:1030F0002DFC02988069000700284DD5FFE7029853
:103100008069000600280AD5FFE70399486A40F065
:1031100010004862019840F080000190FFE702989B
:103120008069400600280AD5FFE70399486A40F005
:1031300020004862019840F480700190FFE70298F7
:103140008069800600280AD5FFE70399486A40F0A5
:1031500040004862019840F400700190FFE7029837
:103160008069C00600280AD5FFE70399486A40F045
:1031700008004862019840F020000190FFE70299A2
:10318000002088610398406828B1FFE703984168F0
:1031900001988847FFE7FFE702988069C00790B170
:1031A000FFE70299002088610399486A20F0010036
:1031B00048620398406828B1FFE7039841680120FE
:1031C0008847FFE7FFE70398406A4008C007F0B16F
:1031D000FFE7029880698007002806D4FFE702997C
:1031E00008694969884212D1FFE702990020886185
:1031F0000399486A20F0020048620398406828B1A9
:10320000FFE70398416802208847FFE7FFE702983D
:103210008069400700280DD5FFE7029900208861EA
:103220000398406828B1FFE7039841684020884729
:10323000FFE7FFE704B080BD80B503F0ADFD80BDC2
:1032400080B582B041F6F010C2F200000190019802
:103250006021FDF762FB01990220086101990120BC
:103260004861019847F2EB71C8F220018161019A2F
:1032700041F65030C2F20000D061019A4FF48060F4
:103280001062019A00209062019A5062019AD06205
:10329000019A9164019A41F65021C2F20001D16471
:1032A000019A4FF48071116501998865019948650B
:1032B0000199C865BFF35F8F0090FFE700980F2862
:1032C0000ED8FFE7009A47F20C40C8F22000801A9F
:1032D000C07B01998854FFE7009801300090EDE72A
:1032E000BFF35F8F02B080BD84B003900398006984
:1032F00002900398C068019002980199884209D809
:10330000FFE7039881680198C04308440299084484
:10331000009005E002990198C04308440090FFE73F
:10332000009804B07047000080B58AB009900891F9
:103330000792002005900998C0680390FFE709985C
:103340000069049004980399884206D9FFE704991C
:103350000398C0430844069008E0099881680398E0
:10336000049A801AC04308440690FFE7069809991A
:103370008968039A891A884203D2FFE70698019068
:1033800005E0099880680399401A0190FFE70198C9
:10339000069006980799884203D2FFE706980090A6
:1033A00002E007980090FFE70098069009984068AF
:1033B00003990844029002980899069AFDF768FA62
:1033C00006990598084405900699089808440890BD
:1033D00006990798401A07900699039808440390A5
:1033E000039809998968884203D1FFE70020039078
:1033F000FFE7BFF35F8F03980999C860FFE707985D
:1034000008B12FF065C005980AB080BD80B588B0BE
:103410000790069105920798C06803900798806806
:103420000399401A029002980599884212D9FFE741
:103430000798406803990844019001980699059AF5
:10344000FDF726FABFF35F8F0398059908440799A3
:10345000C8601FE0029804900798406803990844E8
:10346000019001980699049AFDF712FA05980299BD
:10347000401A049007984068019001980699029AB2
:103480001144049AFDF704FABFF35F8F049807997B
:10349000C860FFE708B080BD81B0009000980028A8
:1034A0000DD4FFE7009901F01F02012090404A0966
:1034B0004EF28021CEF2000141F82200FFE701B078
:1034C0007047000081B000900098002811D4FFE7F9
:1034D000009901F01F02012090404A094EF280112C
:1034E000CEF2000141F82200BFF34F8FBFF36F8F80
:1034F000FFE701B07047000081B0009000980028FD
:1035000011D4FFE7009901F01F02012090404A0901
:103510004EF28011CEF2000141F82200BFF34F8F2E
:10352000BFF36F8FFFE701B07047000081B00090DC
:103530000098002811D4FFE7009901F01F02012034
:1035400090404A094EF28011CEF2000141F822006B
:10355000BFF34F8FBFF36F8FFFE701B070470000DD
:1035600081B00090009800280DD4FFE7009901F089
:103570001F02012090404A094EF20011CEF20001D4
:1035800041F82200FFE701B070470000FFE7BFF3FA
:103590004F8F4EF60C51CEF20001086800F4E06047
:1035A0000422C0F2FA5210430860F0E780B584B0FC
:1035B0004EF20000CEF201000068C003002833D4B0
:1035C000FFE74EF68451CEF2000100200860BFF301
:1035D0004F8F4EF68050CEF20000006803900398A3
:1035E000C0F34E300290FFE70398C0F3C90001908A
:1035F000FFE702990198800761F34D104EF66C7158
:10360000CEF2000108600198411E019108B12FF02F
:1036100011C00298411E029108B12FF01BC8BFF3E0
:103620004F8FBFF36F8FFFE7BFF34F8FBFF36F8FE6
:103630004EF65071CEF2000100200860BFF34F8FAC
:10364000BFF36F8F02F050F904B080BD80B500F079
:1036500033FB00F081FAFFE741F65071C2F200013E
:10366000C8680130C86008690130086100F06CFE6C
:1036700000F006FA00F0BCFDEEE7000080B584B073
:103680005420029000200190FFE70198029988429F
:103690001AD2FFE7019947F21D40C8F2200000EB63
:1036A000810310F8210059789A78DB7802F070F8DD
:1036B0000090009818B1FFE7009803900FE0FFE733
:1036C000019801300190E0E749F20001C1F6602164
:1036D000086840F00100086000200390FFE70398AD
:1036E00004B080BD81B000900098806B01B070473D
:1036F00082B001900091009A0199C86B1043C86391
:103700000198C06B02B0704781B00090009840688B
:1037100000998968084001B07047000082B00190AC
:1037200000910098019948600198406802B0704784
:1037300081B000900098D0F8C00201B0704700003E
:1037400081B000900098D0F8D00201B0704700001E
:1037500081B000900098D0F8800201B0704700005E
:1037600081B000900098D0F8A00201B0704700002E
:1037700081B000900098D0F8B00201B0704700000E
:1037800081B000900098D0F8900201B0704700001E
:1037900081B000900098C06801B0704781B000907F
:1037A0000098D0F8400101B07047000081B000904F
:1037B0000098D0F8100101B07047000081B000906F
:1037C0000098D0F8300101B07047000081B000903F
:1037D0000098D0F8F00001B07047000081B0009070
:1037E0000098D0F8E00001B07047000082B001906E
:1037F0008DF803109DF80310012088400199C862DC
:1038000002B0704781B000900098016801200870F4
:1038100001B0704781B000900098D0F8000D00F022
:10382000010001B07047000082B001908DF80310D4
:103830009DF80310012000FA01F20199086A9043F3
:10384000086202B07047000083B0029001910092BC
:1038500001980299C1F8080D00980299C1F80C0D61
:1038600002990020C1F8040D03B0704782B00190A6
:103870008DF803100198406B9DF80310C84000F0CC
:10388000010002B07047000082B001908DF8031073
:1038900001989DF8031000EBC100D0F8000100F082
:1038A0000F0002B07047000084B003908DF80B1039
:1038B000039A9DF80B00B02110FB012001900198A4
:1038C00000900098083004B07047000084B0039066
:1038D0008DF80B10039A9DF80B00B02110FB01200E
:1038E0000190019800900098407904B07047000062
:1038F00081B000900098006B00F0010001B07047AB
:1039000081B000900098D0F8BC0001B07047000072
:1039100081B000900098D0F8C00001B0704700005E
:103920004FF20001C4F60211086840F080400860C0
:10393000704700004FF20001C4F60211086840F021
:10394000004008607047000083B001900198006853
:10395000806800F00C000090BDF8000040F002000C
:10396000ADF8000000980199096888600198006826
:1039700040688008C007E0B9FFE701980068406828
:103980000009C007A8B9FFE7019800684068C009AE
:10399000C00770B9FFE7019800684068000AC007D7
:1039A00038B9FFE70198006840684009C00720B9AE
:1039B000FFE700208DF80B0003E001208DF80B00DD
:1039C000FFE79DF80B0003B07047000080B582B0A0
:1039D000019001984069012801D1FFE712E00199A7
:1039E0000220009008610198FFF7AEFF01460098A1
:1039F000002918BF0020019948610198006B00F070
:103A000003F8FFE702B080BD82B0019001980090FA
:103A1000009908780130087040BF002002B070475C
:103A200000BF704700BF704700BF704700BF7047BE
:103A300000BF704700BF704700BF704700BF7047AE
:103A400000BF704700BF704700BF704700BF70479E
:103A500000BF704700BF704700BF704700BF70478E
:103A600000BF704700BF704700BF704700BF70477E
:103A700000BF704700BF704700BF704700BF70476E
:103A800081B041F65071C2F20001086900900098BF
:103A90000130009000980138086101B070470000C3
:103AA00081B041F65071C2F20001C86900900098DF
:103AB0000130009000980138C86101B070470000E3
:103AC00080B588B047F27871C8F220010DF1090085
:103AD00000901722FCF7DCFE009841F65072C2F20B
:103AE0000002116D013101910199116504300199B4
:103AF00000F06AFE00980D30019981F0A53100F0C8
:103B000063FE009800F072F908B080BD80B588B0FF
:103B100047F26071C8F2200102A800901822FCF759
:103B2000B7FE009841F65072C2F20002516C0131AA
:103B30000191019951640530019900F045FE00980A
:103B40000E30019981F0A53100F03EFE0099012070
:103B500000F05CFC08B080BD80B588B047F2BF7152
:103B6000C8F220010DF1090000901722FCF790FE29
:103B7000009841F65072C2F20002116B01310191BE
:103B8000019911630430019900F01EFE00980D3078
:103B9000019981F0A53100F017FE009800F02CFC8F
:103BA00008B080BD80B58AB0099047F2A771C8F20D
:103BB000200103A800901822FCF76AFE0098172144
:103BC00002910530099900F0FFFD00980E30099927
:103BD00081F0A53100F0F8FD0099029A0020FFF76E
:103BE0009FF8019041F65071C2F20001D1F8A8008F
:103BF0000130C1F8A8000298019A821AD1F8AC00ED
:103C00001044C1F8AC000AB080BD000080B58AB095
:103C1000099047F28F71C8F2200103A80190182281
:103C2000FCF736FE01980530099900F0CDFD0198AA
:103C30000E30099981F0A53100F0C6FD01990420EC
:103C400000F02CFC029041F65071C2F20001D1F854
:103C5000B0000130C1F8B000029850B1FFE741F662
:103C60005071C2F20001D1F8B4000130C1F8B400C3
:103C7000FFE70AB080BD000080B582B041F6507009
:103C8000C2F20000B83040F0010001900198804776
:103C900002B080BD80B582B00190009141F65071B4
:103CA000C2F20001886D013088650198009900F02A
:103CB000F5FB02B080BD000080B586B041F65071C2
:103CC000C2F2000103910020049008604860FEF7F2
:103CD000F7FE049847F2D671C8F22001FEF7E4FF20
:103CE000049847F2DC71C8F22001FEF7A3FF0498A4
:103CF0006946086047F2E571C8F2200142F24812B5
:103D0000C2F2000201204FF40063FEF787FE00F0CC
:103D10005BF90399024604988A60C86008614861AB
:103D20008861C861086248628862C8620863486343
:103D30008863C863086448648864C8640865486523
:103D40008865C865086648668866C8660867486703
:103D5000886700F04BFA039902460498CA67C1F8D5
:103D60008000C1F88400C1F88800C1F88C00C1F857
:103D70009000C1F8940043F24432C1F22212C1F81B
:103D80009820C1F89C00C1F8A000C1F8A400C1F8B7
:103D9000A800C1F8AC00C1F8B000C1F8B4000590AB
:103DA000FFE70598FF280DD8FFE7059841F6507109
:103DB000C2F20001014481F8B800FFE70598013024
:103DC0000590EEE700F0FCF841F65071C2F20001F8
:103DD00002910120486000F0F3F8029944F2532068
:103DE000C4F24470086006B080BD000080B582B0A7
:103DF0000190019800F0B0F840B1FFE741F6507132
:103E0000C2F20001C86C0130C864FFE702B080BD97
:103E100041F65071C2F20001C86E0130C86600BEA2
:103E20007047000082B041F22470C2F200000068C6
:103E30004DF68361C4F21B31A0FB0110C00C019050
:103E40004EF6FC51CEF20001086840F08070086028
:103E500041F20401CEF200010020086041F20001AD
:103E6000CEF20001086840F00100086040F6B07131
:103E7000CEF200014CF65560CCF2AC5008600198CF
:103E800020B1FFE701980138009002E00020009087
:103E9000FFE700981021CEF204010860F021CEF275
:103EA00004010220086040F64061CEF200010020CB
:103EB000086040F60061CEF200010120086040F683
:103EC0008061CEF200010D20C0F20100086002B056
:103ED0007047000084B0039041F22470C2F20000E9
:103EE000006844F6D351C1F26201A0FB01108009C1
:103EF00002904EF6FC51CEF20001086840F080704E
:103F0000086041F20001CEF20001086840F00100B3
:103F1000086000200190FFE701980399884218D2B9
:103F2000FFE741F20400CEF2000000680090FFE7D6
:103F300041F20400CEF2000000680099401A029994
:103F4000884201D2FFE7F3E7FFE7019801300190D3
:103F5000E2E704B07047000080B582B00090FFF740
:103F600061FF40F68060CEF200000068C00740B1FB
:103F7000FFE740F60060CEF200000068C00718B905
:103F8000FFE70020019018E0FFE70098007888B173
:103F9000FFE7FFE74FF060400068C00708B9FFE7A0
:103FA000F8E7009800784FF0604108700098013001
:103FB0000090EAE701200190FFE7019802B080BD80
:103FC000BFF35F8F7047000085B040F20000C0F281
:103FD0000020006845F24E41C5F24521884216D1C5
:103FE000FFE740F20000C0F2002040684AF6B1311D
:103FF000CAF6BA5188420AD1FFE740F20001C0F286
:104000000021C8688968C943884203D0FFE70020BF
:10401000009006E040F20000C0F2002080680090AE
:10402000FFE700980130009040F20000C0F200204D
:10403000002101604FF0FF314160009981600099DB
:10404000C943C1604AF6B131CAF6BA51416045F27E
:104050004E41C5F245210160049010200390039861
:10406000012820DBFFE70398049901F01F010844B1
:10407000029004980190BFF34F8FFFE701984EF62E
:104080006871CEF20001086001982030019002981A
:104090002038029002980028F0DCFFE7BFF34F8F32
:1040A000BFF36F8FFFE7BFF34F8F009805B07047E6
:1040B000BFF34F8FFFF76AFA4EF62451CEF200019C
:1040C000086820F480200860BFF34F8F00DEFFE710
:1040D000FEE7000080B586B0059000200490FFE761
:1040E00004980E2823D8FFE704994EF20010CEF270
:1040F000000050F82100049A42F20811C2F20001B7
:1041000041F82200049A4EF28011CEF200014FF0E5
:10411000FF3041F82200049A4EF28021CEF20001D5
:1041200041F82200FFE7049801300490D8E74EF6EA
:104130001050CEF200000190006842F20811C2F265
:104140000001C8633F200290FFF7A6F90298FFF72D
:1041500007FA0199086820F01600086000F046F898
:1041600001460298059AD167059A02215167BFF36B
:104170004F8F30BFBFF36F8FFFF7A4F90298FFF79F
:104180008BF900200390FFE703980E2822D8FFE761
:10419000039A4EF28011CEF200014FF0FF3041F849
:1041A0002200039A4EF28021CEF2000141F8220053
:1041B000039A42F20810C2F2000050F822004EF2B8
:1041C0000011CEF2000141F82200FFE70398013010
:1041D0000390D9E742F20810C2F20000C06B4EF61D
:1041E0001051CEF20001086006B080BD3F2070473C
:1041F00080B584B041F65071C2F200018869039025
:104200000398C969884201D1FFE77EE041F650700A
:10421000C2F200000121016281624069029012280D
:1042200000F265800299DFE801F0610A0D101316B3
:10423000191C1F232F373A3D4043464F5800FFF7C4
:104240008BFC55E0FFF73CFC52E000F087F94FE0B3
:10425000FFF7DEFD4CE000F063FA49E000F052FAAF
:1042600046E000F0E9F943E0039800F087F93FE009
:1042700041F65070C2F200000190406A00F0B6F9B9
:104280000199C1F8940033E041F65070C2F2000089
:10429000406A00F03DF82BE000F010F928E000F053
:1042A00073FA25E000F080FA22E0FFF7E5FC1FE05A
:1042B00000F0DCF81CE041F65070C2F20000406AE9
:1042C000012100F0C7F913E041F65070C2F200007E
:1042D000406A022100F0BEF90AE041F65070C2F2D5
:1042E0000000406A032100F0B5F901E0FFE7FFE7B5
:1042F000039841F65071C2F20001C86102200862C1
:1043000003208862FFF7CCFBFFE704B080BD00000C
:1043100080B582B001900198212803D3FFE72020C7
:104320000190FFE700200090FFE700980199884284
:1043300007D2FFE7FFF7EAFBFFE7009801300090A4
:10434000F3E702B080BD000080B596B00020059074
:1043500041F65070C2F20000806B0490FFE700202D
:10436000019006A94022FEF7AFFB01460198039198
:104370000290FFE702980399884225D2FFE705984B
:1043800068B9FFE741F65070C2F20000406B30B9E7
:10439000FFE749F6C550C8F21C100490FFE70598E6
:1043A00001300590029906A8415C049848400490A9
:1043B000049840F29311C0F2001148430490FFE7C3
:1043C000029801300290D5E7FFE703984028C6D055
:1043D000FFE7059868B1FFE7059A41F65071C2F210
:1043E0000001486B1044486304988863FFF7B4FBEE
:1043F000FFE716B080BD000080B582B00190019942
:10440000002000F003F802B080BD000080B584B049
:1044100003900291029800F0FDF801900398029930
:10442000019AFEF77DFC0090039870B9FFE741F612
:104430005071C2F20001C86A0130C8620198009A46
:10444000821AC86B1044C8630DE041F65071C2F285
:104450000001086C013008640198009A821A886C87
:1044600010448864FFE704B080BD000080B582B0CE
:1044700000200190FFE7019817280DD8FFE7019968
:1044800047F27050C8F2200050F821008047FFE743
:10449000019801300190EEE702B080BD84B0039036
:1044A0000291039BDDF808C018466146ABBE024688
:1044B000009200980190019804B0704780B584B0D4
:1044C00041F65071C2F2000102910020C8650866F1
:1044D0004866886642F64811C2F2000147F2FE6063
:1044E000C8F220000860052048601B208860012079
:1044F000FFF7D0FB029903900398C8650398002842
:1045000020D4FFE7039842F64811C2F2000100915F
:10451000086047F2DC60C8F2200048602120886013
:104520000520FFF7B7FB009941F65072C2F2000276
:1045300001921066039808600220FFF7ABFB019917
:104540004866FFE713200021FFF7A8FF41F65071EE
:10455000C2F20001886604B080BD000080B547F259
:104560001A71C8F220010420FFF798FF41F650713C
:10457000C2F20001486D0130486580BD80B584B04D
:1045800003900020029041F65071C2F20001012018
:10459000C1F88C0002208862FFE741F65070C2F239
:1045A0000000D0F890000399884213D0FFE70298EA
:1045B00041F65071C2F200010191D1F8881008440F
:1045C00000F014F801990290D1F888000130C1F888
:1045D0008800E2E741F65071C2F200010220C1F802
:1045E0008C000298C1F8940004B080BD81B00090A6
:1045F000009880F0A5300090009843F24001C1F28D
:1046000020010844009000984FEA707000900098D4
:1046100001B0704782B0019000200090FFE7019840
:104620000099405C20B1FFE7009801300090F6E768
:10463000009802B07047000080B541F65071C2F298
:104640000001D1F884000130C1F88400FFF730FD8B
:10465000FFE7FEE780B584B003900291039820B194
:10466000FFE70398812803D3FFE780200390FFE74B
:1046700000200190FFE701980399884240D2FFE7AC
:1046800041F65071C2F20001D1F8A400013000904F
:104690000098C1F8A4009DF80800C00720B1FFE70A
:1046A0000098FFF77FFAFFE79DF8080080070028D1
:1046B00004D5FFE70098FFF7A9FAFFE71420FFF7FA
:1046C00009FC01980F2808D1FFE741F65070C2F2AB
:1046D0000000806900F03CF80DE001981F2809D126
:1046E000FFE741F65070C2F200008069013000F02F
:1046F0002FF8FFE7FFE7FFE7019801300190BAE7E5
:1047000004B080BD80B541F65071C2F20001D1F80D
:1047100080000130C1F88000FFF7CEFCFFE7FEE724
:1047200080B582B041F65070C2F200000190016F76
:10473000013101670121416702218162FFF7CAFC53
:104740000199886F013088670320486702B080BDF7
:1047500081B0009041F65071C2F2000102208862DF
:10476000FFE741F65070C2F20000D0F890000099C7
:10477000884201D0FFE7F4E741F65071C2F2000130
:104780000120886201B0704781B041F65071C2F2D9
:104790000001D1F8980000900098D1F89C000130F9
:1047A000C1F89C0001B0704741F65071C2F200019F
:1047B00047F28870C5F26650C1F89800D1F8A000A1
:1047C0000130C1F8A000704783B002900191002031
:1047D0000090FFE70098072814D8FFE7019800F041
:1047E0000F0147F24370C8F22000405C0299009A22
:1047F000891AC871019800090190FFE700980130FB
:104800000090E7E703B0704782B00190019942F64B
:104810005810C2F2000050F821000090009802B039
:104820007047000082B001908DF803109DF80310CE
:10483000012000FA01F20199C86C1043C864019884
:10484000C06C02B07047000081B000900098006C0E
:10485000C0B201B07047000081B000900098D0F85D
:10486000880000F0010001B07047000082B00190A4
:104870000091009A0199086B9043086302B0704759
:1048800084B003900291002000900398406B019047
:104890009DF804004006002844D5FFE70398D0F8AF
:1048A000800001909DF80500C006002803D5FFE7B1
:1048B0000120009032E09DF80400400718B1FFE7A6
:1048C0000220009029E09DF804000007002803D58D
:1048D000FFE7032000901FE09DF805004007002837
:1048E00003D5FFE70820009015E09DF8040040067E
:1048F000002803D5FFE7092000900BE09DF8050094
:10490000C00718B1FFE70A20009002E006200090DF
:10491000FFE7FFE7FFE7FFE7FFE7FFE70398406DEB
:1049200001901EE09DF804000007002808D5FFE76D
:104930000299486A013048620398C06C0190FFE711
:104940009DF80400800758B1FFE70299886A01309A
:1049500088620398806C01900398406C0190FFE797
:10496000FFE7009804B0704780B582B001900198CD
:1049700040F25721FFF77AFF02B080BD80B582B0C8
:10498000019001984FF41671FFF770FF02B080BDDF
:1049900080B586B0059004910020ADF80A008DF82E
:1049A00009000598C06A03909DF80C004006002895
:1049B00007D5FFE705980499FFF762FF0499C862DD
:1049C000FFE70598006C0498C06A002853D0FFE701
:1049D00042F65411C2F20001012008700498C06A26
:1049E000012806D1FFE70499886B40F040008863F6
:1049F0003BE00498C06A022806D1FFE70499886B5F
:104A000040F0100088632FE00498C06A032806D1A4
:104A1000FFE70499886B40F00200886323E0049864
:104A2000C06A092806D1FFE70499886B40F400703A
:104A3000886317E00498C06A0A2806D1FFE7049942
:104A4000886B40F4806088630BE00498C06A062895
:104A500006D1FFE70499886B40F080008863FFE788
:104A6000FFE7FFE7FFE7FFE7FFE70598406D0499E1
:104A70000020C86240E104980069002800F02A8103
:104A8000FFE79DF80C00C006002867D5FFE70498F3
:104A900090F83C00C00700B3FFE7FFE7059800F07F
:104AA000E3FBC8B1FFE7049B5868D9684A1CDA6089
:104AB000405CADF80A00BDF80A0005990861049849
:104AC000C06804998968884205D3FFE704990020EB
:104AD00081F83C0000E0E1E7FFE7FFE74FF480707A
:104AE000ADF80A000499C8690130C86104994969A0
:104AF000884210D3FFE704980278BDF80A1041F409
:104B00000070D207002A18BF0846ADF80A0001203D
:104B10008DF80900FFE7BDF80A0005990861FFE775
:104B2000059800F0A1FB01460020019031B1FFE79C
:104B30009DF8090080F001000190FFE70198C0078F
:104B400008B12FF035C89DF80900C00728B1FFE76C
:104B500005981021FFF78AFEFFE7FFE79DF80C009C
:104B60004007002835D5FFE7FFE7059800F0ECF98E
:104B700070B3FFE7059800F0DFF9049A11699269B4
:104B8000885404998869013088610498806904997F
:104B900008620498806904994969884217D3FFE73D
:104BA00004980078C00760B1FFE70598FFF7DCFEC6
:104BB0000499002008630499886B40F00100886321
:104BC00004E005980421FFF751FEFFE700E0CCE781
:104BD000FFE79DF80C00800728B1FFE70499886A79
:104BE00001308862FFE79DF80D008007002870D52E
:104BF000FFE742F65410C2F200000078C00758B137
:104C0000FFE70499002008630499886342F6541171
:104C1000C2F20001087058E00598FFF71DFE002859
:104C200049D1FFE70498806904994969884223D2F1
:104C3000FFE70598806F04994A698969C94311445F
:104C4000884218D3FFE7FFE7049948698969401A49
:104C500080B1FFE7059800F06FF9049A1169926935
:104C6000885404998869013088610498806904999E
:104C70000862E9E7FFE7FFE704988069049949695A
:104C800088420ED3FFE7049900200863049A916BD1
:104C900041F00101916342F65411C2F20001087023
:104CA00008E00499002008630499886B40F0020032
:104CB0008863FFE708E00499002008630499886B83
:104CC00040F001008863FFE7FFE70598FFF74CFE1F
:104CD000FFE710E00598FFF747FE049900200863FE
:104CE0000499886B40F0010088630499886B40F058
:104CF00002008863FFE7FFE706B080BD80B586B09D
:104D0000059004910020ADF80A008DF8090005987F
:104D1000C06A03909DF80C004006002807D5FFE705
:104D200005980499FFF7ACFD0499C862FFE7059860
:104D3000006C0498C06A002853D0FFE742F6551172
:104D4000C2F20001012008700498C06A012806D14F
:104D5000FFE70499886B40F0400088633BE00498CB
:104D6000C06A022806D1FFE70499886B40F0100062
:104D700088632FE00498C06A032806D1FFE70499EE
:104D8000886B40F00200886323E00498C06A092819
:104D900006D1FFE70499886B40F40070886317E040
:104DA0000498C06A0A2806D1FFE70499886B40F48A
:104DB000806088630BE00498C06A062806D1FFE78C
:104DC0000499886B40F080008863FFE7FFE7FFE706
:104DD000FFE7FFE7FFE70598406D04990020C862F0
:104DE00076E09DF80C00C006002870D5FFE7049817
:104DF0004068002859D0FFE7FFE7049B5868D9684E
:104E00004A1CDA60405CADF80A000498C068049956
:104E10008968884210D3FFE704980278BDF80A1029
:104E200041F40070D207002A18BF0846ADF80A0006
:104E300001208DF80900FFE7BDF80A000599086117
:104E40000498C06804990862FFE7059800F00CFA1E
:104E500001460020019031B1FFE79DF8090080F084
:104E600001000190FFE70198C00708B12FF03BC88F
:104E70009DF80900C007B8B1FFE704980078C007A3
:104E800060B1FFE70598FFF779FD049900200863FA
:104E90000499886B40F00100886304E005981021B4
:104EA000FFF7E4FCFFE7FFE710E00598FFF766FD7A
:104EB0000499002008630499886B40F0010088631E
:104EC0000499886B40F002008863FFE7FFE7FFE783
:104ED0009DF80C000007002805D5FFE70499486AF3
:104EE00001304862FFE79DF80D008007002820D5BB
:104EF000FFE742F65510C2F200000078C00758B133
:104F0000FFE70499002008630499886342F655116D
:104F1000C2F20001087008E00499002008630499B7
:104F2000886B40F001008863FFE70598FFF726FDD6
:104F3000FFE706B080BD000081B0009000980069D6
:104F4000C0B201B07047000081B000900098006FBF
:104F5000C0F3C00001B0704784B0039002910020FC
:104F600000900398406B01909DF8050040070028D1
:104F700004D5FFE70398406E0190FFE79DF8050018
:104F80008007002804D5FFE70398006E0190FFE733
:104F90009DF805000007002804D5FFE70398806E00
:104FA0000190FFE79DF804000007002808D5FFE7FF
:104FB0000299486A013048620398C06C0190FFE78B
:104FC0009DF80400800758B1FFE70299886A013014
:104FD00088620398806C01900398406C0190FFE711
:104FE0009DF804004006002811D5FFE70398D0F88B
:104FF000800001909DF8050010F0500F03D0FFE7EE
:1050000001200090FFE70398406D0190FFE70098B2
:1050100004B0704780B582B00190019840F207213A
:10502000FFF724FC02B080BD80B582B001900198EA
:105030004FF41871FFF71AFC02B080BD80B584B040
:10504000039002910398C06A01900398006C9DF848
:105050000400400700282AD5FFE7FFE70398FFF781
:1050600073FF18B3FFE70398FFF766FF029A116911
:105070009269885402998869013088610298806930
:1050800002990862029880690299496988420CD3A2
:10509000FFE70299002008630299886B40F0010045
:1050A00088630398FFF7B6FF00E0D7E7FFE79DF8B6
:1050B0000400800728B1FFE70299886A01308862FE
:1050C000FFE79DF805008007002847D5FFE7029815
:1050D000806902994969884223D2FFE70398806F6B
:1050E00002994A698969C9431144884218D3FFE784
:1050F000FFE7029948698969401A80B1FFE7039880
:10510000FFF71AFF029A1169926988540299886917
:10511000013088610298806902990862E9E7FFE737
:10512000FFE70298806902994969884209D3FFE73D
:105130000299002008630299886B40F0010088639F
:1051400008E00299002008630299886B40F0020091
:105150008863FFE70398FFF75DFFFFE704B080BDBA
:1051600080B584B0039002910020ADF8020003984E
:10517000C06A019003980299FFF7EEFE0299C86297
:105180000398006C02984068A0B3FFE70398006F93
:10519000400600282DD5FFE7FFE7039800F064F8EC
:1051A00030B3FFE702994868C968405CADF8020077
:1051B0000299C8680130C8600298C0680299086204
:1051C000BDF80200039908610298C06802998968D5
:1051D00088420CD3FFE70398FFF726FF02990020CF
:1051E00008630299886B40F00100886300E0D4E70F
:1051F000FFE7FFE79DF804000007002805D5FFE75B
:105200000299486A01304862FFE70298C06A0128A3
:1052100016D1FFE70398FFF707FF0299886B40F06C
:10522000800088630299886B40F0010088630299CE
:10523000886B40F00200886302990020C862FFE793
:105240009DF80500800700280CD5FFE70398FFF7BD
:10525000EBFE0299002008630299886B40F0010080
:105260008863FFE704B080BD81B000900098006FB4
:10527000C0F3400001B0704781B000900098006C0E
:1052800001B0704781B000900098406C01B0704749
:1052900082B001900198C06B0090009840F003002C
:1052A000009000980199C86302B0704782B00190E5
:1052B0000198C06B0090009840F0020000900098A8
:1052C0000199C86302B0704782B001900198C06B29
:1052D0000090009840F03000009000980199C86359
:1052E00002B0704780B58EB00D900C910D98806C17
:1052F00001300B900C9840690A9000208DF827002F
:105300008DF826008DF825000D99096B08910D99EF
:10531000896B079106909DF81C00800700280CD52A
:10532000FFE70D98FFF7A8FF0D98FFF7BFFF0C9957
:10533000886940F004008861FFE79DF81C00C00701
:10534000002800F0F380FFE70D98D0F80002C003BA
:10535000002800F1EB80FFE7089840B1FFE70898CC
:10536000022804D8FFE702208DF8260003E004207D
:105370008DF82600FFE70C9840680B999DF82620D1
:10538000514300EB41000C99C96888420ED9FFE7F0
:105390000C99C8684968401A9DF826104900B0FB6E
:1053A000F1F0069001208DF8270002E00B9806909E
:1053B000FFE700208DF82500FFE79DF825000699FE
:1053C00088426BD2FFE79DF82600022832D1FFE722
:1053D0000D98006AADF816000D98406AADF81400FB
:1053E0000C98007FC00768B1FFE7BDF816000A9966
:1053F0000C9A526888529DF826200C9948681044EF
:10540000486016E0BDF816000A990C9A5268885256
:10541000BDF814000A990C9A526811449DF8262090
:1054200088529DF826200C99486800EB420048609D
:10543000FFE72CE00D98006A04900D98406A0390F5
:105440000C98007FC00760B1FFE704980A990C9A96
:10545000526888509DF826200C994868104448608E
:1054600014E004980A990C9A5268885003980A9993
:105470000C9A526811449DF8262088509DF82620E9
:105480000C99486800EB42004860FFE7FFE7FFE740
:105490009DF8250001308DF825008EE79DF8270046
:1054A00098B3FFE70C9840680C99C96888422CD2E1
:1054B000FFE79DF82600022814D1FFE70D98006A47
:1054C000ADF80A00BDF80A000A990C9A5268885291
:1054D0000D98406A0C9840689DF8261008440C9975
:1054E000486011E00D98006A019001980A990C9AA1
:1054F000526888500D98406A0C9840689DF82610B4
:1055000008440C994860FFE7FFE70C9840680C9945
:10551000C968884209D3FFE70D98FFF7B9FE0C99D7
:10552000886940F002008861FFE7FFE70EB080BDA8
:1055300080B588B0079006910798806B0590079812
:10554000C06CC0F10F000490069800690390002021
:105550008DF80B008DF80A008DF809000799496B4A
:10556000019100909DF81400C006002840F1E880E9
:10557000FFE70798D0F800028003002800F1E080E0
:10558000FFE7019840B1FFE70198022804D8FFE740
:1055900002208DF80A0003E004208DF80A00FFE7DE
:1055A0000698006804999DF80A20514300EB4100D9
:1055B0000699896888420ED9FFE7069988680968C4
:1055C000401A9DF80A104900B0FBF1F0009001204C
:1055D0008DF80B0002E004980090FFE700208DF8A2
:1055E0000900FFE79DF809000099884266D2FFE7AD
:1055F0009DF80A0002282DD1FFE70698007FC0071A
:1056000080B1FFE7039806990968405A0799086234
:105610000799002048629DF80A20069908681044FE
:10562000086016E0039806990968405A07990862CD
:1056300003980699096808449DF80A10405A07998A
:1056400048629DF80A200699086800EB420008604D
:10565000FFE72CE00698007FC00780B1FFE70398C2
:10566000069909684058079908620799002048621E
:105670009DF80A20069908681044086016E003980F
:1056800006990968405807990862039806990968BD
:1056900008449DF80A104058079948629DF80A206E
:1056A0000699086800EB42000860FFE7FFE7FFE7A4
:1056B0009DF8090001308DF8090093E79DF80B0073
:1056C00068B3FFE70698006806998968884226D281
:1056D000FFE79DF80A00022810D1FFE7039806991A
:1056E0000968405A079908620799002048629DF8A6
:1056F0000A2006990868104408600FE0039806998C
:1057000009684058079908620799002048629DF887
:105710000A200699086810440860FFE7FFE706982A
:10572000006806998968884209D3FFE70798FFF760
:10573000CBFD0699886940F001008861FFE7FFE72B
:105740009DF814008006002804D5FFE70798FFF7AE
:1057500099FDFFE708B080BD81B08DF803008DF89A
:1057600002109DF802009DF8032047F20001C4F2E8
:10577000002141F8220001B07047000080B582B0DE
:1057800000200190FDF77AFFFDF760FF02B080BDB9
:1057900080B584B08DF80B008DF80A108DF80920C3
:1057A0008DF808309DF80B000F280AD1FFE79DF80F
:1057B0000A00082804D3FFE74FF0FF30039034E0DD
:1057C0000EE09DF80B000E2805DCFFE79DF80A00AF
:1057D000082804D3FFE74FF0FF30039025E0FFE7F0
:1057E0009DF80B000F2809D1FFE79DF80A009DF8EE
:1057F0000810FFF7B1FF0020039016E09DF80B00A2
:1058000040019DF80A1000EB810001909DF80810FE
:105810009DF8090040EA0140019943F20002C1F6F7
:105820006022885000200390FFE7039804B080BDF9
:1058300080B582B00020019044F20000C2F2000066
:1058400048F20001C2F2000188425FEA1F90019015
:10585000019808B1FFE704E0FDF7BCF8FDF734FB61
:10586000FFE702B080BD000081B00090009842F6D2
:105870008011C2F20001096888425FEA2F9001B0EE
:105880007047000080B582B001900198FEF7BCFF20
:1058900000900098D0F88C0F00F0010002B080BD9D
:1058A00080B584B003900398FEF7AEFF0290029893
:1058B00000F6887001900199086820F001000860E6
:1058C00004B080BD80B584B003900398FEF79CFFC0
:1058D0000290029800F6887001900199086840F0E3
:1058E0000100086004B080BD4FF0D251086840F05C
:1058F000010008607047000081B00090009948687E
:1059000020F0010048600099486820F004004860D9
:1059100001B0704781B000900099486820F0020003
:10592000486001B07047000081B000900098D0F846
:10593000840001B07047000081B000900098D0F85A
:105940008000C0F1200001B07047000080B58AB02F
:10595000099008910020079006900590049003900C
:105960000998806800F00F000790079802900C28B3
:1059700000F2ED800299DFE801F007EA48EA93EAD5
:105980000AEAEAEAEAEA930009988069E2E00998FB
:10599000406906909DF8180010F0820F34D0FFE7A0
:1059A0000899082088619DF81800C006002806D5CF
:1059B000FFE70899886940F080008861FFE79DF85B
:1059C00018000007002806D5FFE70899886940F00D
:1059D00040008861FFE79DF818004007002806D5C1
:1059E000FFE70899886940F020008861FFE79DF88B
:1059F00018008007002806D5FFE70899886940F05D
:105A000010008861FFE7FFE7A4E0FFE70998FFF7D0
:105A100093FF059000200390FFE7039805998842C3
:105A200018D2FFE70898806808994968884201D32E
:105A3000FFE70FE00998089A11689268895C00F006
:105A400099F80899886801308860FFE70398013069
:105A50000390E2E7FFE7099800F096F8014600207E
:105A6000019049B1FFE70898806808994968884221
:105A70005FEA2F900190FFE70198C00708B12FF06F
:105A80003BC80898806808994968884207D3FFE7AF
:105A90000998FFF73FFF089901208861FFE759E067
:105AA000FFE70998FFF740FF049000200390FFE70D
:105AB00003980499884218D2FFE70898406908992A
:105AC0000969884201D3FFE70FE0099800F044F824
:105AD000089AD16852698854089948690130486128
:105AE000FFE7039801300390E2E7FFE7099800F031
:105AF00039F801460020009049B1FFE70898406955
:105B00000899096988425FEA2F900090FFE70098A2
:105B1000C00708B12FF03BC8089840690899096987
:105B2000884207D3FFE70998FFF7E6FE08990220AD
:105B3000886103E0089904208861FFE707980C2832
:105B400004D1FFE7089904208861FFE702E0099883
:105B5000C06FFFE70AB080BD81B000900098006878
:105B600001B0704781B000900098C06FC0F3C000D2
:105B700001B0704782B001908DF803109DF80300CA
:105B80000199086002B0704781B000900098C06F22
:105B9000C0F3400001B0704780B58AB00990002082
:105BA00005900490039001208DF82300FFE79DF8F5
:105BB00023000999D1F89426D1F89C161144884203
:105BC0003CD2FFE709989DF8231001EB410100EB5F
:105BD000811060300790079890F89000C00708B9CE
:105BE000FFE725E0079890F890008007002801D48F
:105BF000FFE71DE009989DF82310039B049ADDF848
:105C000014E0EC46CCF804E0CCF80020052201F0CA
:105C100093FA06900698B0F1FF3F01DCFFE70DE034
:105C20000799D1F8900020F00200C1F89000FFE73A
:105C30009DF8230001308DF82300B8E70AB080BD3D
:105C400082B00190019800684CF20C7140580090AD
:105C50009DF80000400708B9FFE7FFE701980068DA
:105C60004FF4474280580090009840F48000009024
:105C70000098019909688850019800684CF20472F4
:105C800080580090009840F0F850009000980199DA
:105C90000968885002B0704780B59CB0099008919F
:105CA000BDF82000000B04900898C0F344008DF864
