:020000040800F2
:10000000D823012005030008716F00086D5800080F
:100010006D6F0008010500082D9300081703000804
:1000200000000000000000000000000019030008AC
:10003000A5050008000000001D0300081F030008BC
:100040002103000821030008210300082103000800
:1000500021030008210300082103000821030008F0
:10006000210300082103000821030008A905000856
:1000700021030008210300082103000821030008D0
:1000800021030008210300082103000821030008C0
:1000900021030008210300082103000821030008B0
:1000A0002103000821030008B5050008210300080A
:1000B000210300082103000821030008C9050008E6
:1000C000D9050008E9050008F90500080906000837
:1000D0001906000821030008210300082103000875
:1000E0002103000821030008210300082103000860
:1000F0002103000821030008210300082103000850
:10010000210300082103000821030008210300083F
:10011000210300082103000821030008815800087A
:10012000715800082103000821030008B178000875
:10013000C17800084D8200085D8200086D820008C9
:1001400021030008210300082103000821030008FF
:10015000210300082103000821030008597E00083C
:1001600021030008E16F00082103000821030008B3
:1001700021030008210300082103000821030008CF
:1001800021030008210300082103000821030008BF
:1001900021030008210300082103000821030008AF
:1001A000210300082103000821030008210300089F
:1001B000210300082103000821030008210300088F
:1001C000210300082103000821030008210300087F
:1001D000210300082103000821030008210300086F
:1001E000210300082103000821030008210300085F
:1001F000210300082103000821030008210300084F
:10020000210300082103000821030008210300083E
:10021000210300082103000821030008210300082E
:10022000210300082103000821030008210300081E
:10023000210300082103000800F002F800F052F842
:1002400014A696E8000CB244B344DA4501D100F09C
:1002500049F8BAE80F000FA696E83000A5EB0405B0
:1002600004EB0607AAEB0704A7F101074FEA1515EF
:100270004FEA3414A4F10104AC4201D300F032F887
:1002800013F0010F18BFFB1A43F0010300F001F84F
:10029000DBE71847E8A3000008A40000103A24BFD9
:1002A00078C878C1FAD8520724BF30C830C144BFDB
:1002B00004680C60704700007047000000230024B1
:1002C00000250026103A28BF78C1FBD8520728BF66
:1002D00030C148BF0B6070471FB50AF006F81FBD5C
:1002E00010B510BD00F0D1F81146FFF7F5FF09F089
:1002F000E1FF00F0EFF803B4FFF7F2FF03BC00F0FA
:10030000F7F800000A4880470A480047FEE7FEE782
:10031000FEE7FEE7FEE7FEE7FEE7FEE7FEE7FEE7B5
:10032000FEE7000004480549054A064B70470000F7
:10033000C97D000839020008D81F0020D8230120F9
:10034000D81F0120D81F0120032A40F2308010F06E
:10035000030C00F0158011F8013BBCF1020F624460
:1003600098BF11F801CB00F8013B38BF11F8013BF1
:10037000A2F1040298BF00F801CB38BF00F8013B9E
:1003800011F0030300F04F80083AC0F0088051F8E4
:10039000043B083A51F804CBA0E80810F5E7121D19
:1003A0005CBF51F8043B40F8043BAFF30080D20738
:1003B00024BF11F8013B11F801CB48BF11F8012B04
:1003C00024BF00F8013B00F801CB48BF00F8012B27
:1003D00070474FF0000200B5134694469646203908
:1003E00022BFA0E80C50A0E80C50B1F12001BFF4EE
:1003F000F7AF090728BFA0E80C5048BF0CC05DF854
:1004000004EB890028BF40F8042B08BF704748BFA1
:1004100020F8022B11F0804F18BF00F8012B704715
:1004200070477047704710B5203AC0F00B80B1E8B4
:100430001850A0E81850B1E81850A0E81850203A19
:10044000BFF4F5AF5FEA027C24BFB1E81850A0E822
:10045000185044BF18C918C0BDE810405FEA827C3C
:1004600024BF51F8043B40F8043B08BF7047D20753
:1004700028BF31F8023B48BF11F8012B28BF20F8F4
:10048000023B48BF00F8012B7047754600F02CF87E
:10049000AE4605006946534620F00700854618B071
:1004A00020B5FFF73FFFBDE820404FF000064FF0BA
:1004B00000074FF000084FF0000BAC46ACE8C00955
:1004C000ACE8C009ACE8C009ACE8C00921F00701FC
:1004D0008D46704710B50446AFF300802046BDE856
:1004E0001040FFF708BF00000048704720000020C0
:1004F00001491820ABBEFEE726000200704700004D
:10050000FFE7FEE783B0029001910092029890F815
:1005100020008007002811D5FFE7019830B1FFE7E0
:1005200001990020CFF601600860FFE7009820B134
:10053000FFE7009907200860FFE710E0019830B15D
:10054000FFE701990020CFF601000860FFE700985F
:1005500020B1FFE7009905200860FFE7FFE703B03F
:100560007047000084B003900291019200930398B9
:100570000068806C4FF6FF718843BDF80010084496
:10058000039909688864039801684FF4FE40C860C5
:10059000029803990968C864019803990968086575
:1005A00004B070477047000080B5012000F088FB60
:1005B00080BD000080B54FF4004000F081FB80BD9D
:1005C00072B6FFE7FEE7000080B541F20810C2F204
:1005D000000000F069F980BD80B541F28010C2F2E0
:1005E000000000F061F980BD80B541F2F810C2F260
:1005F000000000F059F980BD80B541F27020C2F2D0
:10060000000000F051F980BD80B541F2E820C2F24F
:10061000000000F049F980BD80B541F26030C2F2BF
:10062000000000F041F980BD81B0009000980068A2
:100630000069C0F3074001B07047000080B586B084
:100640000490049820B1FFE70498406F18B9FFE7C1
:10065000012005907CE00498406D039004980068A8
:10066000406900F4803002900398012808D0FFE729
:10067000039802285ED1FFE7029800285AD0FFE7CE
:100680000498406D01284ED1FFE7FFE70498C06C45
:10069000012803D1FFE70220059059E004990120C9
:1006A000C864FFE7FFE70499022048650499496F91
:1006B000C8600499002088650499496F086104980E
:1006C0000168486940F4BA4048610498406E38B106
:1006D000FFE704980168486940F400704861FFE74B
:1006E0000498006F38B1FFE704980168486940F446
:1006F00000504861FFE70498406F006801A900229C
:10070000FFF700FF04980168406F4088000408600C
:1007100004980168406F00684FF6FC721040019A1F
:100720001043C867FFE704980168486940F001007A
:1007300048610AE0049940208865FFE70499002099
:10074000C864FFE70120059002E000200590FFE764
:10075000059806B080BD000080B584B0029000F01E
:1007600009FB0190029818B9FFE7012003906EE0A1
:100770000298406D02280BD0FFE70299202088657F
:10078000FFE702990020C864FFE7012003905EE0C4
:1007900002980168486940F0040048610299052008
:1007A0004865FFE70298006800698004002824D4A7
:1007B000FFE700F0DFFA0199401A06281CD3FFE793
:1007C0000299886D40F01000886502990320486501
:1007D000029890F850000006002805D5FFE702981F
:1007E000416F0120C860FFE7FFE702990020C8645D
:1007F000FFE7012003902AE0D4E7029801684869E6
:1008000040F002004861029904204865029801689E
:100810004FF4FE40C860029901204865029890F8A4
:1008200050000006002809D5FFE70298416F01201B
:10083000C8600298016800208864FFE7FFE702991A
:100840000020C864FFE7FFE700200390FFE703985C
:1008500004B080BD82B00090009818B9FFE7012075
:10086000019018E00098406D022806D0FFE700993B
:1008700020208865012001900DE000990420486542
:1008800000980168486942F2040210434861FFE79A
:1008900000200190FFE7019802B0704781B00090FE
:1008A0000098406D01B0704780B584B00390039804
:1008B000006840F6FF718843029003980068503842
:1008C000C0F3C4110120884001900298C0680199CA
:1008D00008400090009808B9FFE744E103980068D9
:1008E00000694005002813D5FFE7039800684069B8
:1008F000400500280BD5FFE7039801684FF480609E
:10090000C8600399886D40F001008865FFE7FFE744
:100910000398006800690005002813D5FFE70398D5
:1009200000684069000500280BD5FFE703980168BF
:100930004FF40060C8600399886D40F0020088653C
:10094000FFE7FFE7039800680069C004002813D59B
:10095000FFE7039800684069C00400280BD5FFE753
:10096000039801684FF48050C8600399886D40F087
:1009700004008865FFE7FFE703980068006940040A
:10098000002813D5FFE70398006840694004002859
:100990000BD5FFE7039801684FF48040C8600399C6
:1009A000886D40F008008865FFE7FFE7039800685E
:1009B00000698005002816D5FFE7039800684069A4
:1009C000800500280ED5FFE7039801684FF40070FA
:1009D000C8600398406E20B1FFE70398416E8847D6
:1009E000FFE7FFE7FFE7039800680069800400283D
:1009F0004CD5FFE70398006840698004002844D57F
:100A0000FFE7039801684FF40050C8600398406DF9
:100A100004282DD1FFE703980168486920F40050AD
:100A2000486103980168486940F0020048610399F1
:100A300001204865039890F850000006002809D569
:100A4000FFE70398416F0120C86003980168002008
:100A50008864FFE7FFE703990020C864FFE7039875
:100A6000C06E20B1FFE70398C16E8847FFE77AE0C8
:100A70000399052048650398006F20B1FFE70398AC
:100A8000016F8847FFE7FFE7FFE7FFE7039800688C
:100A90000069C00500283FD5FFE70398006840695A
:100AA000C005002837D5FFE7039890F850000006EE
:100AB000002813D5FFE703980068C06F68B9FFE707
:100AC00003980068806C38B9FFE7039901204865F6
:100AD0000399496FC860FFE7FFE709E003980068E2
:100AE000806C20B9FFE7039901204865FFE7FFE725
:100AF000039801684FF44070C860FFE70399002035
:100B0000C864FFE70398006E20B1FFE70398016E09
:100B10008847FFE7FFE7FFE70398806D18B3FFE71B
:100B200003980168486940F0020048610399012078
:100B30004865039890F850000006002805D5FFE7A7
:100B40000398416F0120C860FFE7FFE70399002089
:100B5000C864FFE70398806E20B1FFE70398816EB9
:100B60008847FFE7FFE704B080BD000080B586B08E
:100B70000490039102920193049818B9FFE70120B1
:100B800005904FE0FFE70498C06C012803D1FFE710
:100B90000220059046E004990120C864FFE7FFE7C2
:100BA0000498406D01282FD1FFE704990220486581
:100BB00004990020886504980399029A019BFFF725
:100BC000D1FC04980168486940F4BA40486104982F
:100BD000406E38B1FFE704980168486940F400703E
:100BE0004861FFE70498006F38B1FFE70498016897
:100BF000486940F400504861FFE70498016848697B
:100C000040F0010048610AE0049940208865FFE750
:100C100004990020C864FFE70120059002E000204D
:100C20000590FFE7059806B080BD000080B584B050
:100C3000039000F09FF80290039801900198013012
:100C400048B1FFE740F21400C2F2000001680198C9
:100C500008440190FFE7FFE700F08CF80299401A82
:100C60000199884201D2FFE7F6E704B080BD000099
:100C700080B584B0ADF80600BDF806000390039877
:100C800090FAA0F002900298B0FA80F000900099DB
:100C900040F6B870C2F2000050F8210068B1FFE7DA
:100CA000009940F6B870C2F2000050F821200844C4
:100CB00090F8400002219047FFE704B080BD00009B
:100CC00080B582B0ADF8060042F20C00C4F20260BA
:100CD0000068BDF8061008420CD0FFE7BDF806001A
:100CE00042F20C01C4F202610860BDF8060000F097
:100CF00019F8FFE742F21000C4F202600068BDF884
:100D0000061008420CD0FFE7BDF8060042F21001C1
:100D1000C4F202610860BDF80600FFF7A9FFFFE713
:100D200002B080BD80B584B0ADF80600BDF8060005
:100D30000390039890FAA0F002900298B0FA80F025
:100D40000090009940F6B870C2F2000050F82100FF
:100D500068B1FFE7009940F6B870C2F2000050F8A1
:100D60002120084490F8400001219047FFE704B09B
:100D700080BD000041F6B870C2F200000068704704
:100D800080B582B00190019804F01CFF009000989B
:100D900008B9FFE709E00098406808B9FFE704E0F8
:100DA0000098416801208872FFE702B080BD000012
:100DB00080B584B003908DF80B10ADF8082003982F
:100DC00004F000FF0190019808B9FFE795E0019851
:100DD000406808B9FFE790E0002000909DF80B0004
:100DE00078BBFFE701984068406910B3FFE70198BE
:100DF0004168488BC86001980068C06B60B1FFE72C
:100E00000199086849684969019A5268528B4FF004
:100E1000807300F01BFA0BE0019908684968496982
:100E2000019A5268528B4FF0807300F081FBFFE70C
:100E300006E0082000900198416801204871FFE712
:100E40002EE001984068006910B3FFE701984168FF
:100E5000088BC86001980068806B60B1FFE701995A
:100E6000086849680969019A5268128B4FF08073CB
:100E700000F00AFC0BE00199086849680969019AC9
:100E80005268128B4FF0807300F070FDFFE706E0B0
:100E9000042000900198416800204871FFE7FFE7B7
:100EA000009868B1FFE7BDF8080048B9FFE700986F
:100EB00040F0200000900198416801208871FFE710
:100EC00001984068006830B1FFE701984068016808
:100ED00000988847FFE7009878B1FFE7019800681D
:100EE0000168486840F40040486001980068016863
:100EF000086840F0B8000860FFE704B080BD00005B
:100F000080B584B0039003980068806902900398CC
:100F10000068006801909DF80900C00790B1FFE7E4
:100F20009DF804100020B0EBD11F0BD0FFE7039910
:100F3000C86C40F00100C864039801684FF48070E9
:100F4000C861FFE79DF8090000F004010020B0EB44
:100F5000910F12D0FFE79DF804100020B0EBD11FD5
:100F60000BD0FFE70399C86C40F00800C8640398F1
:100F700001684FF48060C861FFE79DF8090000F048
:100F800002010020B0EB510F12D0FFE79DF80410D2
:100F90000020B0EBD11F0BD0FFE70399C86C40F0E5
:100FA0000200C864039801684FF40070C861FFE74D
:100FB0000398C06C00909DF8000010F00B0F05D056
:100FC000FFE70398009904F0C9FEFFE704B080BD75
:100FD00080B584B0039003980068806902900398FC
:100FE0000068006801900398406B30B1FFE70398F8
:100FF000436B0299019A9847FFE704B080BD000057
:1010000080B582B000900098406C202811D1FFE795
:10101000009928204864009946F69540C0F60000E3
:10102000486300984FF4004104F00EFD0020019049
:1010300002E002200190FFE7019802B080BD0000AD
:1010400080B584B00390039804F0BCFD0290029830
:1010500008B9FFE748E00298406808B9FFE743E0B5
:10106000039800F043F80190032000909DF80400DD
:10107000C00748B1FFE7009840F080000090029858
:10108000416801200872FFE79DF8040080070028EE
:1010900009D5FFE7009840F04000009002984168B1
:1010A0000120C871FFE79DF804004007002810D513
:1010B000FFE702980068408D50B9FFE7029800688A
:1010C000008D28B1FFE7009840F010000090FFE786
:1010D000FFE702984068006830B1FFE70298406877
:1010E000016800988847FFE704B080BD81B0009098
:1010F0000098C06C01B0704780B582B00190019833
:1011000004F060FD0090009808B9FFE704E0009843
:101110000068FFF775FFFFE702B080BD80B582B0C1
:101120000190019804F04EFD0090009808B9FFE787
:1011300010E00098406808B9FFE70BE000984068AD
:10114000006808B9FFE705E00098406801680120E1
:101150008847FFE702B080BD80B582B0019001985A
:1011600004F030FD0090009808B9FFE710E0009807
:10117000406808B9FFE70BE000984068006808B9CC
:10118000FFE705E000984068016801208847FFE715
:1011900002B080BD81B0009001B0704781B0009076
:1011A00001B0704780B582B00190019804F00AFD4B
:1011B0000090009808B9FFE71BE00098406808B964
:1011C000FFE716E0009841680020486100984068F9
:1011D000006830B1FFE70098406801680120884747
:1011E000FFE7009800680168086840F0B8000860F0
:1011F000FFE702B080BD000080B582B00190019889
:1012000004F0E0FC0090009808B9FFE71BE00098AC
:10121000406808B9FFE716E00098416800200861BF
:1012200000984068006830B1FFE7009840680168A6
:1012300001208847FFE7009800680168086840F0CF
:10124000B8000860FFE702B080BD000080B588B03C
:1012500006900591ADF8122003930698406C00F0BB
:101260002800282840F05D81FFE7059820B1FFE7BE
:10127000BDF8120038B9FFE706994FF40070C86452
:101280000120079050E1069848F2020104F078FB33
:10129000FFE70698006C012803D1FFE702200790C2
:1012A00042E1069901200864FFE7FFE70698406CD9
:1012B00029282AD1FFE70698012104F061FB06984E
:1012C00000680068400400281ED5FFE70698806B80
:1012D000C8B1FFE706980168086820F480400860FC
:1012E0000698816B45F69100C0F60000C866069826
:1012F000806BFFF7AFFA28B1FFE70698806BC16EED
:101300008847FFE7FFE7FFE72CE00698406C2A28B4
:1013100026D1FFE7069800680068000400281ED563
:10132000FFE706980168086820F400400860069806
:10133000C06B98B1FFE70698C16B45F69100C0F607
:101340000000C8660698C06BFFF784FA28B1FFE773
:101350000698C06BC16E8847FFE7FFE7FFE700E034
:10136000FFE7FFE706992A20486406992020886451
:1013700006990020C86406980168486820F4004077
:101380004860059806994862BDF81200069948859C
:101390000698408D0699088503980699C8620699B3
:1013A00046F65120C0F6000048630698C06B00283E
:1013B0005AD0FFE70698C16B45F6F100C0F6000071
:1013C00008660698C16B45F6CD00C0F60000886639
:1013D0000698C16B002048660699C96BC8660698D6
:1013E000C06B90F850000006002832D5FFE7069841
:1013F000C06B406FC8B1FFE70699088DC96B496F94
:101400000968886006990868C96B2430496F0968C3
:10141000C86005980699C96B496F09680861069804
:10142000C06BFFF70BF9019012E006992820486481
:101430000699002088640699C86C40F08000C86452
:10144000FFE7069900200864FFE7012007906BE0A2
:1014500009E0069B1968D86B2431059A1B8DFFF7AC
:1014600085FB0190FFE712E0069928204864069961
:10147000002088640699C86C40F08000C864FFE7CB
:10148000069900200864FFE7012007904CE00198CE
:1014900048B9FFE706990A8D488D801A4885069954
:1014A0000020088512E0069928204864069900204B
:1014B00088640699C86C40F01000C864FFE706997C
:1014C00000200864FFE7012007902DE006980068DF
:1014D0008069C0F3C000029006980068806900F43B
:1014E00080310020B0EB114F08D1FFE7029828B1FE
:1014F000FFE7069801680820C861FFE7FFE7069943
:1015000000200864FFE706980168086840F400407E
:101510000860069848F2020104F096FA002007904D
:1015200002E001200790FFE7079808B080BD0000A7
:1015300080B586B004900391ADF80A200193049819
:10154000406C00F02800282840F09880FFE70398BE
:1015500020B1FFE7BDF80A0038B9FFE704994FF45E
:101560000070C864012005908BE0049848F20201E5
:1015700004F006FAFFE70498006C012803D1FFE7A6
:10158000022005907DE0049901200864FFE7FFE751
:101590000498406C29282AD1FFE70498012104F01F
:1015A000EFF9049800680068400400281ED5FFE7A2
:1015B00004980168086820F4804008600498806BF3
:1015C00098B1FFE70498816B45F69100C0F60000E2
:1015D000C8660498806BFFF73DF928B1FFE70498CF
:1015E000806BC16E8847FFE7FFE7FFE7FFE70499DD
:1015F0002A20486404992020886404990020C86443
:1016000004990A68516821F4004151600399049AD1
:101610005162BDF80A10049A51850499498D049AC3
:1016200011850199049AD162049A46F69541C0F653
:1016300000015163049909688969C1F3C0010091EF
:1016400004990968896901F48031B0EB114F08D120
:10165000FFE7009828B1FFE7049801680820C861F7
:10166000FFE7FFE7049900200864FFE7049848F2C9
:10167000020104F0E9F90020059002E00120059044
:10168000FFE7059806B080BD80B588B0069005914B
:10169000ADF8122003930698406C00F0280028282B
:1016A00040F05D81FFE7059820B1FFE7BDF812002B
:1016B00038B9FFE706994FF40070C864012007901D
:1016C00050E1FFE70698006C012803D1FFE70220F4
:1016D000079047E1069901200864FFE7FFE70698B5
:1016E00048F2010104F04CF90698406C2A282AD1EE
:1016F000FFE70698022104F043F9069800680068A5
:10170000000400281ED5FFE70698C06BC8B1FFE7AC
:1017100006980168086820F4004008600698C16BCC
:1017200045F69100C0F60000C8660698C06BFFF74A
:1017300091F828B1FFE70698C06BC16E8847FFE7B4
:10174000FFE7FFE72CE00698406C292826D1FFE749
:10175000069800680068400400281ED5FFE7069838
:101760000168086820F4804008600698806B98B192
:10177000FFE70698816B45F69100C0F60000C86649
:101780000698806BFFF766F828B1FFE70698806B34
:10179000C16E8847FFE7FFE7FFE700E0FFE7FFE7ED
:1017A000069929204864069920208864069900201B
:1017B000C86406980168486820F4004048600598AD
:1017C00006994862BDF81200069948850698408D32
:1017D0000699088503980699C862069946F651202D
:1017E000C0F6000048630698806B00285AD0FFE7D7
:1017F0000698816B45F64510C0F60000086606980D
:10180000816B45F6CD00C0F6000088660698816BB6
:10181000002048660699896BC8660698806B90F828
:1018200050000006002832D5FFE70698806B406F15
:10183000C8B1FFE70699088D896B496F0968886010
:1018400005980699896B496F0968C8600699086808
:10185000896B2830496F096808610698806BFEF72C
:10186000EDFE019012E006992820486406990020B8
:1018700088640699C86C40F08000C864FFE7069948
:1018800000200864FFE7012007906BE009E0069B59
:101890001A68986B059928321B8DFFF767F901903C
:1018A000FFE712E006992820486406990020886422
:1018B0000699C86C40F08000C864FFE706990020D4
:1018C0000864FFE7012007904CE0019848B9FFE762
:1018D00006990A8D488D801A48850699002008854A
:1018E00012E0069928204864069900208864069929
:1018F000C86C40F01000C864FFE706990020086437
:10190000FFE7012007902DE0069800688069C0F38A
:10191000C000029006980068806900F480310120C0
:10192000B0EB114F08D1FFE7029828B1FFE7069806
:1019300001680820C861FFE7FFE7069900200864F6
:10194000FFE706980168086840F480400860069840
:101950004FF4004104F078F80020079002E00120E5
:101960000790FFE7079808B080BD000080B586B0FB
:1019700004900391ADF80A2001930498406C00F0A4
:101980002800282840F09980FFE7039820B1FFE75E
:10199000BDF80A0038B9FFE704994FF40070C86435
:1019A000012005908CE0049848F2010103F0E8FF63
:1019B000FFE70498006C012803D1FFE7022005909F
:1019C0007EE0049901200864FFE7FFE70498406C7B
:1019D0002A282AD1FFE70498022103F0D1FF0498B6
:1019E00000680068000400281ED5FFE7049801681D
:1019F000086820F4004008600498C06B98B1FFE7C5
:101A00000498C16B45F69100C0F60000C8660498C2
:101A1000C06BFEF71FFF28B1FFE70498C06BC16ED3
:101A20008847FFE7FFE7FFE7FFE7049929204864BD
:101A300004992020886404990020C86404980168EF
:101A4000486820F400404860039804994862BDF853
:101A50000A00049948850498408D049908850198E6
:101A60000499C862049946F69540C0F600004863A0
:101A7000049800688069C0F3C00000900498006872
:101A8000806900F480310120B0EB114F08D1FFE7ED
:101A9000009828B1FFE7049801680820C861FFE7B3
:101AA000FFE7049900200864FFE7049848F2010169
:101AB00003F0CAFF0020059002E001200590FFE737
:101AC000059806B080BD000040F21400C2F200008C
:101AD000026841F6B871C2F200010868104408605B
:101AE0007047000080B582B042F20001C4F20201EA
:101AF000086840F480700860032000F0C1F801F02D
:101B000057FD40F62041C4F20261096801F00F025E
:101B10004AF20431C0F60001895CC84040F210016D
:101B2000C2F200010860042003F080F80F2000F0EA
:101B30000DF818B1FFE70120019004E000F06AF809
:101B400000200190FFE7019802B080BD80B58CB005
:101B50000B90002004900390FFE740F6A440C4F2ED
:101B60000260016841F480210160006800F4802077
:101B700000900098FFE705A802A901F0B7FC01F06A
:101B800005FD049004984DF68361C4F21B31A0FB5F
:101B900001014FF0FF3000EB9140039041F6F82037
:101BA000C2F2000044F60001C4F20101016040F2FB
:101BB000E731C1600399416000210161816003F058
:101BC000A9F801900198F8B9FFE741F6F820C2F2B0
:101BD000000003F0E5F801900198A0B9FFE70B9829
:101BE0000F280CD8FFE70B994720002200F032F8AD
:101BF0000B9840F21801C2F20001086002E00120D7
:101C00000190FFE7FFE7FFE7472000F01BF801988E
:101C10000CB080BD80B582B0FFE740F69440C4F2BE
:101C20000260016841F004010160006800F00400F6
:101C300001900198FFE701F0C5F901F0B9F902B090
:101C400080BD000080B582B00190019807F0C8FC0B
:101C500002B080BD80B586B005900491039207F074
:101C6000D5FC02900598019002980499039A05F01A
:101C700081F90146019807F0D1FC06B080BD000053
:101C800080B582B00190019807F0E6FC02B080BDFB
:101C900082B00190009102B07047000082B00190C4
:101CA000ADF80210BDF802000199096848620020F1
:101CB00002B0704784B003908DF80B10ADF8082087
:101CC00003980068406A00909DF80B0048B9FFE750
:101CD000BDF80810009840EA01400399096888623D
:101CE00033E003980068816A009800EB114000908F
:101CF00000208DF80700FFE79DF807009DF80B1006
:101D00000139884213D2FFE7039800689DF8071055
:101D100000EB8100D0F80411009800EB1140009016
:101D2000FFE79DF8070001308DF80700E4E7BDF8F4
:101D30000810009840EA0140039909689DF80B20BB
:101D400001EB8201C1F80001FFE7002004B07047F9
:101D500080B582B00190019806F0CAFA0090009810
:101D600008B9FFE713E00098406808B9FFE70EE004
:101D7000009841680120487200984068006830B1BE
:101D8000FFE700984068016801208847FFE702B03C
:101D900080BD000080B588B007908DF81B100798B3
:101DA00006F0A6FA0590059808B9FFE761E00598E6
:101DB000406808B9FFE75CE0059840689DF81B1093
:101DC00001EB410100EBC100343004900020019090
:101DD0000498826804994868104448609DF81B0084
:101DE00018B1FFE70420019031E00498406805999C
:101DF0004968496A884203D1FFE70420019025E041
:101E000005984068C069049949680844029005989B
:101E10004068406A04994968401A039003980499FD
:101E20004988884204D9FFE7049840880390FFE777
:101E3000039804998860059800689DF81B1041F08C
:101E40008001029A039B00F0F3F9FFE7FFE7059892
:101E50004068406868B1FFE7019850B1FFE7059816
:101E6000406842689DF81B0040F08000019990474F
:101E7000FFE708B080BD000080B588B007908DF8FE
:101E80001B10079806F034FA0590059808B9FFE78B
:101E90006FE00598406808B9FFE76AE00598406878
:101EA0009DF81B1001EB410100EBC10028300490AC
:101EB000002000909DF81B0050B1FFE707989DF8A7
:101EC0001B1000F0FBF8049948600220009040E0ED
:101ED00007989DF81B1000F0F1F80390039A0499FD
:101EE000486810444860039804994988884208D398
:101EF000FFE70498406805994968096A884203D158
:101F0000FFE70220009023E005984068806904996B
:101F100049680844019005984068006A0499496836
:101F2000401A0290029804994988884204D9FFE730
:101F3000049840880290FFE7029804998860059809
:101F400000689DF81B10019A029B00F03BF9FFE727
:101F5000FFE705984068406858B1FFE7009840B136
:101F6000FFE70598406842689DF81B00009990477C
:101F7000FFE708B080BD000080B582B001900198F5
:101F800006F0B6F90090009808B9FFE713E0009852
:101F9000406808B9FFE70EE00098416800204872E9
:101FA00000984068006830B1FFE700984068016819
:101FB00002208847FFE702B080BD000080B584B0F2
:101FC00003908DF80B109DF80B00000600280CD52F
:101FD000FFE703989DF80B1001F00F0101EBC10121
:101FE00000EB8100143000900CE003989DF80B107A
:101FF00001F00F0101EBC10100EB810000F515704C
:102000000090FFE703980068009906F049FE0190F0
:10201000019804B080BD000080B584B002908DF8B6
:1020200007109DF80700000600280FD5FFE702986B
:102030009DF8071001F00F0101EBC10100EB8100D9
:10204000143000900099012048700FE002989DF82C
:10205000071001F00F0101EBC10100EB810000F559
:1020600015700090009900204870FFE79DF8070068
:1020700000F00F0000990870FFE70298D0F8940470
:10208000012803D1FFE70220039013E00299012009
:10209000C1F89404FFE7FFE702980068009906F092
:1020A00019FBFFE702990020C1F89404FFE7002024
:1020B0000390FFE7039804B080BD000082B0019058
:1020C0008DF8031001989DF8031001F00F0101EB4A
:1020D000C10100EB8100D0F8680202B07047000037
:1020E00080B586B004908DF80F10ADF80C208DF8F7
:1020F0000B30002001909DF80F00000600280FD53E
:10210000FFE704989DF80F1001F00F0101EBC101EA
:1021100000EB8100143000900099012048700FE01E
:1021200004989DF80F1001F00F0101EBC10100EBC5
:10213000810000F515700090009900204870FFE7BD
:102140009DF80F0000F00F0000990870BDF80C001A
:102150006FF3DF20009988609DF80B0000990871EB
:102160000098407820B1FFE7009908784883FFE79E
:102170009DF80B00022804D1FFE700990020487168
:10218000FFE7FFE70498D0F89404012803D1FFE7A4
:102190000220059013E004990120C1F89404FFE7A0
:1021A000FFE704980068009906F00EFAFFE704992B
:1021B0000020C1F89404FFE701980590FFE7059817
:1021C00006B080BD80B586B005908DF813100392DF
:1021D000029305989DF8131001F00F0101EBC10166
:1021E00000EB810000F51570019003980199C8601B
:1021F000029801990861019900204861019948708D
:102200009DF8130000F00F0001990870059880797F
:10221000012804D1FFE703980199C861FFE7059AF7
:1022200010680199927906F03DFB002006B080BD50
:1022300080B586B005908DF813100392029305982F
:102240009DF8131001F00F0101EBC10100EB8100BB
:102250001430019003980199C860029801990861AF
:102260000199002048610199012048709DF81300F0
:1022700000F00F000199087005988079012804D1B9
:10228000FFE703980199C861FFE7059A1068019973
:10229000927906F007FB002006B080BD80B58CB0B7
:1022A0000B900B9800680A900A9809900B980068A8
:1022B00006F02CFE002840F04384FFE70B980068EE
:1022C00006F090FE10B9FFE700F03ABC0998D0F88C
:1022D0000808C0F30D200B99C1F8D8040B980068CA
:1022E00006F080FE8007002807D5FFE70B980168FD
:1022F000486900F002004861FFE70B98006806F0AB
:1023000071FEC006002862D5FFE70B980168886956
:1023100020F0100088610A98006A02900B980299D8
:1023200001F00F0101EBC10100EB810000F5157018
:102330000890029800F4F0110220B0EB514F23D125
:10234000FFE7BDF8080047F6F07108421BD0FFE731
:102350000A980899C968029AC2F30A1206F050FE58
:10236000029847F6F07100EA0103089AD06800EB82
:102370001310D060029800EA01020899486900EB46
:1023800012104861FFE71BE0029800F4F0110620EC
:10239000B0EB514F12D1FFE70A980B9901F5946108
:1023A000082206F02DFE029847F6F07100EA0102BD
:1023B0000899486900EB1210486100E0FFE7FFE769
:1023C0000B980168886940F010008861FFE70B985E
:1023D000006806F007FE0003002840F1A680FFE732
:1023E000002004900B98006806F0AAFD0690FFE715
:1023F0000698002800F09880FFE79DF81800C007B5
:10240000002800F08A80FFE70B9800689DF8101004
:1024100006F0D0FD05909DF81400C00760B1FFE7FD
:102420000998049900EB41110120C1F8080B0B98A1
:10243000049904F023FEFFE79DF81400000700282C
:102440000CD5FFE70998049900EB41110820C1F869
:10245000080B0B98049904F0CBFDFFE79DF81400DE
:10246000C006002808D5FFE70998049900EB411140
:102470001020C1F8080BFFE79DF814008007002822
:102480002DD5FFE70A9840690006002808D5FFE728
:102490000999D1F8040840F48060C1F80408FFE706
:1024A0000B98049901EBC10100EB810000F5157058
:1024B00008900898C078012809D1FFE70899002002
:1024C000C8700B989DF8101000F042FBFFE70998C8
:1024D000049900EB41110220C1F8080BFFE79DF8B9
:1024E00014008006002808D5FFE70998049900EB3E
:1024F00041112020C1F8080BFFE79DF81500800668
:10250000002809D5FFE70998049900EB41114FF421
:102510000050C1F8080BFFE7FFE704980130049072
:1025200006984008069063E7FFE70B98006806F0FE
:1025300059FD4003002840F1C680FFE70B98006872
:1025400006F0ECFC069000200490FFE706980028B7
:1025500000F0B880FFE79DF81800C007002800F0E1
:10256000AA80FFE70B9800689DF8101006F0FAFCAF
:1025700005909DF81400C00700283ED0FFE704989E
:1025800000F00F01012000FA01F10391039B099A69
:10259000D2F834189943C2F834180999049A01EB17
:1025A0004211C1F808090B98807901281FD1FFE773
:1025B0000B98049901EBC10100EB8101CA69086A1B
:1025C00010440862049888B9FFE70B98049901EB5E
:1025D000C10100EB8100406A40B9FFE70B99086830
:1025E00001F59462012106F011F9FFE7FFE70B986E
:1025F0009DF81010FFF7CEFBFFE79DF814000007D1
:10260000002808D5FFE70998049900EB411108203C
:10261000C1F80809FFE79DF81400C006002808D596
:10262000FFE70998049900EB41111020C1F808094F
:10263000FFE79DF814004006002808D5FFE7099839
:10264000049900EB41114020C1F80809FFE79DF80B
:1026500014008007002822D5FFE70A98049906F0A5
:10266000F5FB0B98049901EBC10100EB81001430DC
:1026700008900898C078012809D1FFE70899002040
:10268000C8700B989DF8101000F05CFAFFE70998ED
:10269000049900EB41110220C1F80809FFE79DF8F9
:1026A00014000006002805D5FFE70B98049904F0F4
:1026B000C9FDFFE7FFE70498013004900698400841
:1026C000069043E7FFE70B98006806F08BFCC00F0D
:1026D00000B3FFE70999D1F8040820F00100C1F820
:1026E00004080B98D0F8D004012808D1FFE70B9814
:1026F0000021C0F8D0140B98FFF7CAFA03E00B983A
:1027000000F08EFAFFE70B980168486900F000407E
:102710004861FFE70B98006806F064FC000500289C
:1027200011D5FFE70998D0F80808C00720B1FFE7E6
:102730000B9800F003FBFFE70B980168486900F471
:1027400000604861FFE70B98006806F04BFC000151
:10275000002820D5FFE70B980168486900F0006069
:1027600048610B98D0F8D00480B9FFE70B9801219D
:10277000C0F8D0140B980068406DC0F383000B9A2A
:10278000C2F8D4040B98FFF783FA03E00B9800F02B
:10279000D5FAFFE7FFE70B98006806F023FCC004BA
:1027A000002840F18680FFE70999D1F8040820F05D
:1027B0000100C1F804080B980068102106F046FBE0
:1027C00000200790FFE707980B990979884231D2DA
:1027D000FFE70998079900EB41114FF67F30C1F8E8
:1027E00008090999079A01EB4212D2F8001921F45D
:1027F0000011C2F800190999079A01EB4211C1F8BA
:10280000080B0998079900EB4111D1F8000B20F44F
:102810000010C1F8000B0998079900EB4111D1F89D
:10282000000B40F00060C1F8000BFFE70798013093
:102830000790C8E70999D1F81C0840F00110C1F8C9
:102840001C080B98C07B78B1FFE70999D1F8840880
:1028500040F00B00C1F884080999D1F8440840F011
:102860000B00C1F844080FE00999D1F8140842F2AE
:102870002B021043C1F814080999D1F8100840F050
:102880000B00C1F81008FFE70999D1F8000820F4FF
:10289000FE60C1F800080B9A1068917902F5946205
:1028A00005F0B4FF0B980168486900F48050486156
:1028B000FFE70B98006806F095FB800400281FD501
:1028C000FFE70B98006805F0EFFE0B98006806F034
:1028D000F7FA0B99C8710B980068019000F03EFE62
:1028E000014601980B9AD27906F000FC0B9800F093
:1028F00035F90B980168486900F400504861FFE71A
:102900000B98006806F06EFB000700280AD5FFE769
:102910000B9800F0A7F90B980168486900F00800CF
:102920004861FFE70B98006806F05CFB0006002892
:1029300034D5FFE70A99886920F08000886101207A
:102940000490FFE704980B990979884225D2FFE7A4
:102950000B98049901EBC10100EB810090F857023C
:10296000012815D1FFE70998049900EB4111D1F82E
:10297000000B40F00060C1F8000B0998049900EBCF
:102980004111D1F8000B40F08040C1F8000BFFE787
:10299000FFE7049801300490D4E7FFE70B98006844
:1029A00006F020FBC00200283CD5FFE70120049080
:1029B000FFE704980B99097988422CD2FFE7099820
:1029C000049900EB4110D0F8000902900B9804998B
:1029D00001EBC10100EB8100007E012816D1FFE769
:1029E0009DF80B000006002810D5FFE70B9804990E
:1029F00001EBC10100EB81010120C8750B989DF826
:102A0000101041F08001FFF7D9FAFFE7FFE70498C3
:102A100001300490CDE70B980168486900F48010FC
:102A20004861FFE70B98006806F0DCFA8002002896
:102A300056D5FFE701200490FFE704980B99097928
:102A4000884246D2FFE70998049900EB4110D0F87C
:102A5000000B02900B98049901EBC10100EB81007F
:102A600090F8580201282FD1FFE79DF80B000006CF
:102A7000002829D5FFE7029800F480310B98D0F8A0
:102A8000D80400F00100B0EB114F1DD1FFE70B9807
:102A9000049901EBC10100EB8101012081F857028B
:102AA0000A99886940F0800088610A9840690006A8
:102AB000002808D4FFE70999D1F8040840F4007011
:102AC000C1F8040805E0FFE7FFE70498013004902F
:102AD000B3E70B980168486900F400104861FFE70C
:102AE0000B98006806F07EFA400000280AD5FFE740
:102AF0000B98FFF72DF90B980168486900F08040AA
:102B00004861FFE70B98006806F06CFA4007002860
:102B100015D5FFE70B980068406802909DF8080003
:102B20004007002804D5FFE70B98FFF725FAFFE7D9
:102B3000029A0B980168486810434860FFE7FFE776
:102B40000CB080BD82B001908DF8031002B07047C8
:102B500082B001908DF8031002B0704780B586B046
:102B60000590059805F0C4FB0490049808B9FFE7A8
:102B700053E00498406808B9FFE74EE004984168C4
:102B800000200390886104994968086204994968A3
:102B9000C8610499496848620498406828304FF435
:102BA000C071FDF716FC039804994A6801219172DF
:102BB00004994968C87204984068006830B1FFE71A
:102BC00004984068016804208847FFE70598C079A9
:102BD00080B9FFE704984168022088720498406831
:102BE000006830B1FFE70498406801680820884712
:102BF000FFE7FFE704980022019240230293114669
:102C000005F0D2FB019A029B0498802105F0CCFBD1
:102C1000049841680120C872FFE706B080BD00003B
:102C200080B582B00190019805F062FB0090009899
:102C300008B9FFE713E00098406808B9FFE70EE025
:102C4000009841680120C87200984068006830B15F
:102C5000FFE700984068016820208847FFE702B03E
:102C600080BD000081B0009001B0704780B584B095
:102C700002908DF80710FFE70298D0F8940401281D
:102C800003D1FFE70220039018E002990120C1F868
:102C90009404FFE7FFE79DF8070002994874029843
:102CA00000689DF8071006F005FAFFE7029900207A
:102CB000C1F89404FFE700200390FFE7039804B0F5
:102CC00080BD000080B582B00190019805F010FB36
:102CD0000090009808B9FFE72DE00098406808B917
:102CE000FFE728E000984168019AD2F8A004D2F8E2
:102CF000A4244A610861009841680120C8600098D6
:102D00004068006980B2B0F5A06F08D1FFE7009875
:102D100041680969C1F3074105F024FBFFE700980A
:102D20004068406838B1FFE700984068426800207A
:102D300001219047FFE702B080BD000080B582B05E
:102D40000190019805F0D4FA0090009808B9FFE7C7
:102D500013E00098406808B9FFE70EE0009841686A
:102D60000020C87200984068006830B1FFE7009802
:102D70004068016810208847FFE702B080BD00006E
:102D800085B0039040F21000C2F20000006844F6E3
:102D9000D351C1F26201A0FB01208009322200FB65
:102DA00002F0A0FB0101012000EB911002900398BA
:102DB00018BBFFE740F60801C4F20261086820F082
:102DC00002000860FFE740F63C00C4F202600168C0
:102DD000002089070029019006D5FFE70298002806
:102DE00018BF01200190FFE70198C00720B1FFE75D
:102DF000029801380290E6E722E040F60801C4F2AA
:102E00000261086840F002000860FFE740F63C00FD
:102E1000C4F202600168002089070029009006D4EE
:102E2000FFE70298002818BF01200090FFE70098F4
:102E3000C00720B1FFE7029801380290E6E7FFE7FC
:102E4000029818B9FFE70320049002E000200490E4
:102E5000FFE7049805B0704786B0049040F63C0048
:102E6000C4F20260006800F44030029002980499B5
:102E7000884211D1FFE70498B0F1011F09D3FFE7A1
:102E800040F60C01C4F20261086840F4802008603A
:102E9000FFE70020059087E00498B0F1011F0DD3F3
:102EA000FFE740F60C01C4F20261086820F4E0225A
:102EB0000498104340F4802008600AE040F60C01BA
:102EC000C4F20261086820F4E020049A104308600C
:102ED000FFE740F21000C2F20000006844F6D35150
:102EE000C1F26201A0FB01208009322200FB02F046
:102EF000A0FB0101012000EB91100390FFE740F6D9
:102F00000C00C4F20260016800200904002901904D
:102F100006D4FFE70398002818BF01200190FFE7BF
:102F20000198C00720B1FFE7039801380390E6E756
:102F3000039880B3FFE740F21000C2F2000000687F
:102F400044F6D351C1F26201A0FB01208009322274
:102F500000FB02F0A0FB0101012000EB91100390A7
:102F6000FFE740F63C00C4F202600168002009045B
:102F70000029009006D4FFE70398002818BF01201D
:102F80000090FFE70098C00720B1FFE703980138E1
:102F90000390E6E7FFE7039818B9FFE703200590E1
:102FA00002E000200590FFE7059806B0704700009A
:102FB00040F61001C4F20261086840F00050086059
:102FC0007047000040F61001C4F20261086840F04A
:102FD000805008607047000040F63C00C4F2026078
:102FE000006800F44030704780B588B006900591C5
:102FF000069818B9FFE70120079073E2059842F29E
:103000000001C4F20201096801F00F01884215D9DC
:10301000FFE742F20000C4F20200016821F00F0154
:10302000059A11430160006800F00F00059988427D
:1030300003D0FFE70120079054E2FFE706980078ED
:10304000C006002819D5FFE70698406940F62441DC
:10305000C4F20261096801F0700188420CD9FFE7EF
:1030600040F62441C4F20261086820F07000069A1C
:10307000526910430860FFE7FFE7069800780007F1
:1030800000281BD5FFE70698006940F62041C4F2EE
:103090000261096801F4E061B0EB111F0DD9FFE78F
:1030A00040F62041C4F20261086820F4E060069A0C
:1030B000126940EA02100860FFE7FFE7069800780F
:1030C0004007002819D5FFE70698C06840F6204160
:1030D000C4F20261096801F0700188420CD9FFE76F
:1030E00040F62041C4F20261086820F07000069AA0
:1030F000D26810430860FFE7FFE706980078800772
:10310000002819D5FFE70698806840F62041C4F2F0
:103110000261096801F00F0188420CD9FFE740F60F
:103120002041C4F20261086820F00F00069A9268FC
:1031300010430860FFE7FFE706980078C007002803
:1031400000F01381FFE700200290069840680328F2
:1031500057D1FFE740F69440C4F202600068400790
:10316000002812D4FFE7FFE740F69440C4F2026063
:10317000016841F004010160006800F00400019062
:103180000198FFE701200290FFE7FDF7F3FD0390B0
:1031900040F60C00C4F2026000684003002816D517
:1031A000FFE7FFE740F60C00C4F20260006840044D
:1031B00000280BD4FFE7FDF7DDFD0399401A032833
:1031C00003D3FFE7032007908CE1EBE7FFE70298CA
:1031D000012809D1FFE740F69441C4F20261086872
:1031E00020F004000860FFE740F60040C4F20260EF
:1031F00000688001002803D4FFE70120079071E1F7
:1032000031E00698406802280DD1FFE740F6004003
:10321000C4F2026000688003002803D4FFE70120A5
:1032200007905FE11EE00698406868B9FFE740F646
:103230000040C4F2026000684007002803D4FFE7A2
:10324000012007904EE10CE040F60040C4F202601D
:1032500000684005002803D4FFE70120079041E102
:10326000FFE7FFE7FFE740F61C41C4F20261086890
:1032700020F00300069A526810430860FDF77AFDBB
:10328000039006984068032819D1FFE7FFE740F64E
:103290001C40C4F20260006800F00C000C280DD045
:1032A000FFE7FDF767FD0399401A41F28931884233
:1032B00003D3FFE70320079014E1E8E754E0069802
:1032C0004068022819D1FFE7FFE740F61C40C4F22E
:1032D0000260006800F00C0008280DD0FFE7FDF741
:1032E00049FD0399401A41F28931884203D3FFE72F
:1032F00003200790F6E0E8E735E006984068C0B99B
:10330000FFE7FFE740F61C40C4F20260006810F0DF
:103310000C0F0DD0FFE7FDF72DFD0399401A41F288
:103320008931884203D3FFE703200790DAE0E9E719
:1033300018E0FFE740F61C40C4F20260006800F0AD
:103340000C0004280DD0FFE7FDF714FD0399401A87
:1033500041F28931884203D3FFE703200790C1E09F
:10336000E8E7FFE7FFE7FFE7FFE706980078800759
:10337000002819D5FFE70698806840F62041C4F27E
:103380000261096801F00F0188420CD2FFE740F6A4
:103390002041C4F20261086820F00F00069A92688A
:1033A00010430860FFE7FFE7059842F20001C4F20E
:1033B0000201096801F00F01884215D2FFE742F2CD
:1033C0000000C4F20200016821F00F01059A1143C8
:1033D0000160006800F00F000599884203D0FFE704
:1033E000012007907EE0FFE706980078400700285C
:1033F00019D5FFE70698C06840F62041C4F2026183
:10340000096801F0700188420CD2FFE740F62041C4
:10341000C4F20261086820F07000069AD268104376
:103420000860FFE7FFE706980078000700281BD533
:10343000FFE70698006940F62041C4F2026109687E
:1034400001F4E061B0EB111F0DD2FFE740F620411F
:10345000C4F20261086820F4E060069A126940EA4A
:1034600002100860FFE7FFE706980078C006002812
:1034700019D5FFE70698406940F62441C4F202617D
:10348000096801F0700188420CD2FFE740F6244140
:10349000C4F20261086820F07000069A5269104375
:1034A0000860FFE7FFE700F083F840F62041C4F230
:1034B0000261096801F00F024AF20431C0F600010E
:1034C000895CC84040F21001C2F20001086040F27D
:1034D0001800C2F200000068FEF738FB0490049860
:1034E0000790FFE7079808B080BD000082B0019008
:1034F000009101991F20086040F61C40C4F2026050
:10350000006800F003000199486040F62040C4F2D2
:103510000260016801F00F01019A9160016801F0F9
:103520007001019AD160006800F4E060000901991F
:10353000086140F62440C4F20260006800F07000A8
:103540000199486142F20000C4F20200006800F0F4
:103550000F000099086002B07047000080B500F0CD
:1035600027F840F62041C4F20261096801F00F0219
:103570004AF20431C0F60001895C20FA01F140F200
:103580001000C2F200000160006880BD80B5FFF746
:10359000E5FF40F62041C4F202610968C1F302224E
:1035A0004AF21431C0F60001895CC84080BD0000B9
:1035B0008BB000200A90059040F61C40C4F20260D7
:1035C000006800F00C00049040F62840C4F202604D
:1035D000006800F003000390049840B1FFE70498EE
:1035E0000C282DD1FFE70398012829D1FFE740F6E9
:1035F0000840C4F2026000680002002809D4FFE716
:1036000040F6F440C4F20260006880B2000B0A90F9
:1036100007E040F60840C4F202600068000F0A901C
:10362000FFE70A994AF21C30C0F6000050F821006A
:103630000A90049818B9FFE70A980590FFE71CE084
:1036400040F61C40C4F20260006800F00C00042840
:1036500006D1FFE742F20040C0F2F40005900BE013
:103660000498082806D1FFE742F20040C0F2F400B7
:10367000059000E0FFE7FFE7FFE704980C2840F023
:10368000B880FFE740F62840C4F20260016801F00C
:1036900003010991016801F47062012101EB12211B
:1036A00007910068C0F300100690069840F6384174
:1036B000C4F20261096889B2C90800FB01F000EE9A
:1036C000100AB8EE400A8DED020A09980090012810
:1036D00050D0FFE70098022804D0FFE700980328A5
:1036E00024D048E09DED070AB8EE401A9FED420A4B
:1036F00080EE010A40F63440C4F2026000686FF3C5
:103700005F2001EE100AB8EE411A9DED022A9FEDEE
:103710003B3A22EE032A31EE021AB7EE002A31EECE
:10372000021A20EE010A8DED010A4AE09DED070A1A
:10373000B8EE401A9FED300A80EE010A40F63440A0
:10374000C4F2026000686FF35F2001EE100AB8EE69
:10375000411A9DED022A9FED293A22EE032A31EE0D
:10376000021AB7EE002A31EE021A20EE010A8DEDA0
:10377000010A26E0FFE79DED0A0AB8EE400A9DED3A
:10378000071AB8EE411A80EE010A40F63440C4F23E
:10379000026000686FF35F2001EE100AB8EE411A74
:1037A0009DED022A9FED153A22EE032A31EE021A10
:1037B000B7EE002A31EE021A20EE010A8DED010A61
:1037C000FFE740F63440C4F20260006800F0FE41BA
:1037D000012000EB116008909DED010A9DED081A93
:1037E000B8EE411A80EE010ABCEEC00A8DED050A62
:1037F000FFE705980BB070470024744B00000039B8
:1038000010B592B0109000200B90109820B9FFE7EF
:103810000120119001F02DB840F61C40C4F2026066
:10382000006800F00C000D9040F62840C4F20260E1
:10383000006800F003000C9010980078C006002883
:1038400040F1C481FFE70D9850B1FFE70D980C28B7
:1038500040F01781FFE70C98012840F01281FFE744
:103860001098C06920B9FFE70120119001F001B85C
:103870001098406A019040F60840C4F20260006867
:103880000002002809D5FFE740F60840C4F20260B4
:10389000006800F07040009009E040F6F440C4F287
:1038A0000260006800F4704000040090FFE7019897
:1038B0000099884269D9FFE70D9858B9FFE7109839
:1038C000406A03F055FD20B1FFE70120119000F0A0
:1038D000D0BFFFE7FFE740F60841C4F20261086885
:1038E00040F400000860086820F07040109A526AA6
:1038F00010430860FFE7FFE71098406AB0F1404FBF
:103900000CD3FFE740F60C41C4F20261086820F0D6
:103910001F00109A126A1043086034E01098406A41
:10392000B0F1FF3F0DDCFFE740F60C41C4F202614D
:10393000086820F47870109A126A40EA4210086011
:1039400020E01098406AB0F1804F0DD3FFE740F6B9
:103950000C41C4F20261086820F4F840109A126A1F
:1039600040EA822008600CE040F60C41C4F202619B
:10397000086820F47820109A126A40EAC230086081
:10398000FFE7FFE7FFE7FFE768E0FFE740F60841F2
:10399000C4F20261086840F400000860086820F082
:1039A0007040109A526A10430860FFE7FFE71098D2
:1039B000406AB0F1404F0CD3FFE740F60C41C4F22F
:1039C0000261086820F01F00109A126A1043086014
:1039D00034E01098406AB0F1FF3F0DDCFFE740F69D
:1039E0000C41C4F20261086820F47870109A126ADF
:1039F00040EA4210086020E01098406AB0F1804F21
:103A00000DD3FFE740F60C41C4F20261086820F4D0
:103A1000F840109A126A40EA822008600CE040F6F2
:103A20000C41C4F20261086820F47820109A126AEE
:103A300040EAC2300860FFE7FFE7FFE7FFE70D98C5
:103A400058B9FFE71098406A03F092FC20B1FFE7F5
:103A50000120119000F00DBFFFE7FFE7FFF77EFDAB
:103A600040F21800C2F200000068FEF76FF80E90F6
:103A70000E9820B1FFE70E98119000F0FABEFFE714
:103A8000A3E01098C06900287CD0FFE740F6004111
:103A9000C4F20261086840F001000860FDF76AF9AD
:103AA0000F90FFE740F60040C4F202600068400754
:103AB00000280CD4FFE7FDF75DF90F99401A0328A1
:103AC00004D3FFE70320119000F0D3BEEAE7FFE73D
:103AD00040F60841C4F20261086840F40000086042
:103AE000086820F07040109A526A10430860FFE79F
:103AF000FFE71098406AB0F1404F0CD3FFE740F663
:103B00000C41C4F20261086820F01F00109A126A8A
:103B10001043086034E01098406AB0F1FF3F0DDCBC
:103B2000FFE740F60C41C4F20261086820F47870A7
:103B3000109A126A40EA4210086020E01098406A29
:103B4000B0F1804F0DD3FFE740F60C41C4F20261A3
:103B5000086820F4F840109A126A40EA822008604F
:103B60000CE040F60C41C4F20261086820F47820B1
:103B7000109A126A40EAC2300860FFE7FFE7FFE7E9
:103B8000FFE721E040F60041C4F20261086820F03E
:103B900001000860FDF7EEF80F90FFE740F60040E7
:103BA000C4F202600068400700280CD5FFE7FDF76B
:103BB000E1F80F99401A032804D3FFE7032011907E
:103BC00000F057BEEAE7FFE7FFE7FFE7109800784D
:103BD000C007002800F0A280FFE70D98082808D051
:103BE000FFE70D980C280DD1FFE70C98032809D1A9
:103BF000FFE71098406820B9FFE70120119000F01E
:103C000038BE8AE0FFE710984068B0F5803F09D1E0
:103C1000FFE740F60041C4F20261086840F48030DA
:103C2000086040E010984068B0F5A02F11D1FFE780
:103C300040F60041C4F20261086840F48020086048
:103C4000086820F480100860086840F4803008603C
:103C500028E010984068B0F5A81F11D1FFE740F6A2
:103C60000041C4F20261086840F4802008600868DE
:103C700040F480100860086840F48030086010E06C
:103C800040F60041C4F20261086820F48030086008
:103C9000086820F480200860086820F4801008601C
:103CA000FFE7FFE7FFE7FFE710984068D0B1FFE7C5
:103CB000FDF760F80F90FFE740F60040C4F20260A5
:103CC0000068800300280CD4FFE7FDF753F80F9934
:103CD000401A652804D3FFE70320119000F0C9BD06
:103CE000EAE719E0FDF746F80F90FFE740F60040DD
:103CF000C4F202600068800300280CD5FFE7FDF7DE
:103D000039F80F99401A652804D3FFE70320119072
:103D100000F0AFBDEAE7FFE7FFE7FFE710980078A4
:103D20008007002878D5FFE70D98042808D0FFE722
:103D30000D980C281AD1FFE70C98022816D1FFE73E
:103D40001098C06820B9FFE70120119000F091BDE4
:103D500040F61041C4F20261086820F4F810109A8D
:103D6000126940EA02400860FFE754E01098C0681A
:103D700070B3FFE740F60041C4F20261086840F406
:103D800080700860FCF7F6FF0F90FFE740F60040F8
:103D9000C4F202600068400500280CD4FFE7FCF77D
:103DA000E9FF0F99401A032804D3FFE7032011907D
:103DB00000F05FBDEAE740F61041C4F20261086816
:103DC00020F4F810109A126940EA0240086021E0DD
:103DD00040F60041C4F20261086820F48070086077
:103DE000FCF7C8FF0F90FFE740F60040C4F2026006
:103DF0000068400500280CD5FFE7FCF7BBFF0F99D2
:103E0000401A032804D3FFE70320119000F031BDCE
:103E1000EAE7FFE7FFE7FFE71098007800070028D0
:103E200040F1F180FFE70020089040F69440C4F292
:103E3000026000684007002812D4FFE7FFE740F661
:103E40009440C4F20260016841F00401016000681E
:103E500000F0040007900798FFE701200890FFE7B3
:103E600040F62800C4F202600068C00708BBFFE704
:103E700040F62801C4F20261086840F001000860C1
:103E8000FCF778FF0F90FFE740F62800C4F20260CD
:103E90000068C00760B9FFE7FCF76CFF0F99401A94
:103EA000032804D3FFE70320119000F0E2BCEBE706
:103EB000FFE710984069002875D0FFE740F6F04012
:103EC000C4F202600068069010988069069901F0BB
:103ED0008051884245D0FFE79DF81B00000700286D
:103EE0000BD5FFE7069800F08060B0F1806F04D03A
:103EF000FFE70120119000F0BCBC9DF81B004007BB
:103F0000002822D5FFE740F6F041C4F202610868BC
:103F100020F0A0500860FCF72DFF0F90FFE740F65F
:103F2000F040C4F202600068000100280CD5FFE7F1
:103F3000FCF720FF0F99401A062804D3FFE703205F
:103F4000119000F096BCEAE7FFE740F6F041C4F2BA
:103F50000261086820F08050109A9269104308604E
:103F6000FFE740F6F041C4F20261086840F080606B
:103F70000860FCF7FFFE0F90FFE740F6F040C4F248
:103F800002600068000100280CD4FFE7FCF7F2FE95
:103F90000F99401A062804D3FFE70320119000F080
:103FA00068BCEAE721E040F6F041C4F2026108682B
:103FB00020F0A0500860FCF7DDFE0F90FFE740F610
:103FC000F040C4F202600068000100280CD5FFE751
:103FD000FCF7D0FE0F99401A062804D3FFE7032010
:103FE000119000F046BCEAE7FFE70898012809D1E4
:103FF000FFE740F69441C4F20261086820F0040033
:104000000860FFE7FFE7109800784007002840F1BC
:104010002D81FFE70020059040F69440C4F2026035
:1040200000684007002812D4FFE7FFE740F69440FD
:10403000C4F20260016841F004010160006800F010
:10404000040004900498FFE701200590FFE740F684
:104050002800C4F202600068C00700BBFFE740F61A
:104060002801C4F20261086840F001000860FCF712
:1040700081FE0F90FFE740F62800C4F2026000685E
:10408000C00758B9FFE7FCF775FE0F99401A0328DF
:1040900003D3FFE703201190EBE3ECE7FFE7109871
:1040A000007AC007E8B1FFE71098007A40070028BF
:1040B0000DD5FFE740F6F041C4F20261086840F018
:1040C00004000860086840F00100086008E040F65D
:1040D000F041C4F20261086840F001000860FFE7A7
:1040E0000CE040F6F041C4F20261086820F00100E3
:1040F0000860086820F004000860FFE710988068F6
:10410000002861D0FFE7FCF735FE0F90FFE740F68F
:10411000F040C4F202600068800700280DD4FFE779
:10412000FCF728FE0F99401A41F28931884203D3E7
:10413000FFE7032011909CE3E9E71098007A00065E
:10414000002820D5FFE740F6F041C4F2026108687C
:1041500040F080000860FFE740F6F040C4F20260E3
:104160000068000500280DD4FFE7FCF703FE0F9957
:10417000401A41F28931884203D3FFE703201190AE
:1041800077E3E9E71FE040F6F041C4F20261086816
:1041900020F080000860FFE740F6F040C4F20260C3
:1041A0000068000500280DD5FFE7FCF7E3FD0F9937
:1041B000401A41F28931884203D3FFE7032011906E
:1041C00057E3E9E7FFE743E0FCF7D4FD0F90FFE793
:1041D00040F6F040C4F202600068800700280DD568
:1041E000FFE7FCF7C7FD0F99401A41F28931884279
:1041F00003D3FFE7032011903BE3E9E740F6F040EB
:10420000C4F2026000680006002820D5FFE740F6EF
:10421000F041C4F20261086820F080000860FFE706
:1042200040F6F040C4F202600068000500280DD599
:10423000FFE7FCF79FFD0F99401A41F28931884250
:1042400003D3FFE70320119013E3E9E7FFE7FFE75C
:104250000598012809D1FFE740F69441C4F20261B4
:10426000086820F004000860FFE7FFE71098007876
:104270008006002847D5FFE71098C06A08B3FFE71B
:1042800040F60041C4F20261086840F480500860C2
:10429000FCF770FD0F90FFE740F60040C4F20260AB
:1042A0000068800400280BD4FFE7FCF763FD0F993A
:1042B000401A032803D3FFE703201190D9E2EBE76C
:1042C00020E040F60041C4F20261086820F480500A
:1042D0000860FCF74FFD0F90FFE740F60040C4F286
:1042E00002600068800400280BD5FFE7FCF742FD60
:1042F0000F99401A032803D3FFE703201190B8E277
:10430000EBE7FFE7FFE7109800780006002847D5A5
:10431000FFE71098006B08B3FFE740F60041C4F2D6
:104320000261086840F480400860FCF723FD0F90AC
:10433000FFE740F60040C4F2026000680004002875
:104340000BD4FFE7FCF716FD0F99401A032803D39F
:10435000FFE7032011908CE2EBE720E040F60041FC
:10436000C4F20261086820F480400860FCF702FD96
:104370000F90FFE740F60040C4F2026000680004BE
:1043800000280BD5FFE7FCF7F5FC0F99401A03282E
:1043900003D3FFE7032011906BE2EBE7FFE7FFE7B2
:1043A000109800784006002840F1A380FFE710989D
:1043B000406B00287BD0FFE7FFE740F60841C4F2DE
:1043C0000261086840F400000860086820F070602E
:1043D000109A926A10430860FFE7FFE71098406A5E
:1043E000B0F1404F0CD3FFE740F60C41C4F202613C
:1043F000086820F01F00109A126A1043086034E029
:104400001098406AB0F1FF3F0DDCFFE740F60C4129
:10441000C4F20261086820F47870109A126A40EAC7
:104420004210086020E01098406AB0F1804F0DD330
:10443000FFE740F60C41C4F20261086820F4F8403E
:10444000109A126A40EA822008600CE040F60C41A3
:10445000C4F20261086820F47820109A126A40EAD7
:10446000C2300860FFE7FFE7FFE7FFE740F60041E3
:10447000C4F20261086840F010000860FCF77AFCA2
:104480000F90FFE740F60040C4F20260006880062B
:1044900000280BD4FFE7FCF76DFC0F99401A0328A6
:1044A00003D3FFE703201190E3E1EBE720E040F6C0
:1044B0000041C4F20261086820F010000860FCF7B7
:1044C00059FC0F90FFE740F60040C4F2026000681C
:1044D000800600280BD5FFE7FCF74CFC0F99401A2B
:1044E000032803D3FFE703201190C2E1EBE7FFE7C6
:1044F000FFE71098806B002800F0B881FFE70020EC
:10450000039040F61C40C4F20260006800F00C000A
:104510000C2800F02581FFE71098806B022840F0FE
:10452000F280FFE740F60041C4F20261086820F023
:1045300080700860FCF71EFC0F90FFE740F600401B
:10454000C4F202600068800100280BD5FFE7FCF789
:1045500011FC0F99401A032803D3FFE703201190A1
:1045600087E1EBE740F69440C4F202600068400740
:10457000002812D4FFE7FFE740F69440C4F202603F
:10458000016841F004010160006800F0040002903D
:104590000298FFE701200390FFE740F60C00C4F209
:1045A000026000684003002803D5FFE701200B905C
:1045B000FFE740F60C01C4F20261086820F4802095
:1045C0000860FFE740F62841C4F2026108684FF630
:1045D00003729043109BDA6BD3F840E05B6C6FF092
:1045E000FF0C0CEB0E2C42EA0C021A43104308603D
:1045F00040F63441C4F2026108680022C8F2800229
:104600001040109B9A6CDC6CD3F850E0D3F854C087
:10461000013A6FF35F224FF60063CFF6FF7303EBAF
:1046200044239BB21A440023CFF6FF7303EB0E43DF
:1046300003F4FE031A444FF07F4303EB0C6303F0D3
:10464000FE431A4410440860FFE740F62841C4F2D4
:104650000261086820F0100008601098C06DC0006A
:1046600040F63842C4F202621060086840F0100060
:104670000860086820F00C00109A926D10430860E2
:104680000B98012809D1FFE740F60C01C4F2026142
:10469000086840F480200860FFE70398012809D1EA
:1046A000FFE740F69441C4F20261086820F004007C
:1046B0000860FFE740F60041C4F20261086840F07C
:1046C00080700860FCF756FB0F90FFE740F6004053
:1046D000C4F202600068800100280BD4FFE7FCF7F9
:1046E00049FB0F99401A032803D3FFE703201190D9
:1046F000BFE0EBE740F62841C4F20261086840F4ED
:10470000802008602BE040F60041C4F20261086896
:1047100020F080700860FCF72DFB0F90FFE740F65B
:104720000040C4F202600068800100280BD5FFE75A
:10473000FCF720FB0F99401A032803D3FFE703205F
:10474000119096E0EBE740F62841C4F20261086858
:104750004FF6FC72CFF6F87210400860FFE784E075
:1047600040F62840C4F2026000680A9040F63440E7
:10477000C4F20260006809901098806B012840D054
:10478000FFE70A9800F003001099C96B884238D1FE
:10479000FFE70A9800F470611098006C0138B0EBE4
:1047A000112F2ED1FFE70A9800F470401099496C40
:1047B000884226D1FFE709986FF35F201099896C32
:1047C000013988421DD1FFE7BDF824101098C06C54
:1047D0000138B0EB512F14D1FFE7099800F4FE0126
:1047E0001098006D0138B0EB114F0AD1FFE709981E
:1047F00000F0FE411098406D0138B0EB116F03D00E
:10480000FFE70120119034E040F63840C4F2026026
:10481000006881B21098C06DB0EBD10F24D0FFE7D3
:1048200040F62841C4F20261086820F010000860D8
:10483000FCF7A0FA0F90FFE7FCF79CFA0F99401ADB
:1048400008B9FFE7F8E71098C06DC00040F638419E
:10485000C4F20261086040F62841C4F202610868AF
:1048600040F010000860FFE7FFE7FFE7002011902D
:10487000FFE7119812B010BD41F6F820C2F2000017
:104880000168C86840F00100C860704780B588B012
:1048900007900798006800690690079800684069CB
:1048A000059006980599084004900798006880686C
:1048B0000390002002900798D0F88C000190079890
:1048C0000068303000909DF815000007002811D5D1
:1048D000FFE79DF81800000700280BD5FFE70798B1
:1048E0000168886940F4006088610798D0F8B410C6
:1048F000884799E19DF810004006002815D4FFE78D
:104900009DF81000800600280FD4FFE79DF81000E6
:104910004007002809D5FFE70798C16F8847079827
:10492000816F884701200290FFE79DF81000400644
:10493000002811D4FFE79DF81000C00760B1FFE721
:104940009DF810004007002806D4FFE70798816F04
:10495000884701200290FFE79DF81000800600289C
:1049600012D4FFE79DF81000800700280CD5FFE760
:104970009DF810004007002806D4FFE70798C16F94
:10498000884701200290FFE7029808B1FFE74BE15A
:104990009DF810000007002840F18A80FFE7079883
:1049A0000168886940F00800886107980168886993
:1049B00040F01000886107980168886940F4006041
:1049C000886107980168086920F008000861079865
:1049D0000068806810F4404F3AD1FFE7FFE707987E
:1049E000B0F8720098B3FFE70798C06810280BD39F
:1049F000FFE707980068006B0799C96E0860079980
:104A0000C86E0430C8661BE00798C06808280AD33F
:104A1000FFE7009800880799C96E08800799C86E5B
:104A20000230C8660BE00798006890F830000799DC
:104A3000C96E08700799C86E0130C866FFE7FFE7C6
:104A40000799B1F872000138A1F87200C7E7FFE7D3
:104A5000079802F03DFF07990120C1F88C000798E4
:104A6000D0F8900028B1FFE70798D0F8AC1088473D
:104A7000DAE00198052805D1FFE70798D0F89C10E7
:104A8000884714E00198042805D1FFE70798D0F87B
:104A9000981088470AE00198032805D1FFE7079896
:104AA000D0F89410884700E0FFE7FFE7FFE7BBE09E
:104AB000BDF8100010F4587F00F0B680FFE79DF8B5
:104AC0001000400600280ED5FFE70799D1F89000A6
:104AD00040F00400C1F8900007980168886940F030
:104AE00040008861FFE79DF81100800700280ED57F
:104AF000FFE70799D1F8900040F00100C1F890005D
:104B000007980168886940F400708861FFE79DF8A4
:104B10001100C00770B1FFE70799D1F8900040F08D
:104B20000800C1F8900007980168886940F4807017
:104B30008861FFE79DF81000800600280ED5FFE78A
:104B40000799D1F8900040F08000C1F890000798D4
:104B50000168886940F020008861FFE70798D0F875
:104B6000900000285FD0FFE707980168086820F0F0
:104B70000100086007980168086940F26B329043B1
:104B80000861039800F44040B0F5404F41D1FFE781
:104B900007980168886820F4404088600798D0F83A
:104BA0008400C0B1FFE70798D0F8841047F6E910F9
:104BB000C0F60000C8660798D0F88400FBF74AFEEC
:104BC00040B1FFE70799D1F8900040F04000C1F8EC
:104BD0009000FFE7FFE70798D0F88000C0B1FFE73B
:104BE0000798D0F8801047F6E910C0F60000C866B4
:104BF0000798D0F88000FBF72DFE40B1FFE707993A
:104C0000D1F8900040F04000C1F89000FFE7FFE7C6
:104C100008E007990120C1F88C000798D0F8AC1083
:104C20008847FFE7FFE7FFE708B080BD82B001904B
:104C300001980090042843D80099DFE801F00C1D8A
:104C40002F4103004EF21001CEF20001086840F03F
:104C50000400086035E04EF21001CEF20001086851
:104C600020F00400086040F6E041C4F202610868E8
:104C700020F44000086024E04EF21001CEF2000162
:104C8000086820F00400086040F6E041C4F20261C8
:104C90000868012262F39750086012E04EF210019A
:104CA000CEF20001086820F00400086040F6E04100
:104CB000C4F202610868022262F39750086000E0C3
:104CC000FFE702B07047000041F6F820C2F2000092
:104CD0000168C86820F00100C860704781B000908A
:104CE00001B0704781B0009001B0704781B0009072
:104CF00001B0704781B0009001B0704781B0009062
:104D000001B0704781B0009001B0704781B0009051
:104D100001B0704780B582B00090009818B9FFE7E5
:104D20000120019035E00098006C38B9FFE7009948
:104D30000020C863009800F02FF8FFE700990220D8
:104D40000864009951F8040B03F08EF800990120D3
:104D5000C866FFE7009901204864009988640099BB
:104D6000C864009908650099486500998865FFE75F
:104D7000FFE700990120C865009908660099486618
:104D800000998866FFE700990120086400200190DF
:104D9000FFE7019802B080BD81B0009001B070477C
:104DA00083B001900198006C012803D0FFE7012037
:104DB0000290A3E001990220086401980168C86884
:104DC00040F00100C8600198006842F60041C4F25A
:104DD000010188426FD0FFE70198006842F6004168
:104DE000C5F20101884266D0FFE701980068B0F182
:104DF000804F60D0FFE701980068B0F1A04F5AD013
:104E0000FFE70198006840F20041C4F200018842C7
:104E100051D0FFE70198006840F20041C5F200015F
:104E2000884248D0FFE70198006840F60001C4F2CC
:104E3000000188423FD0FFE70198006840F600017A
:104E4000C5F20001884236D0FFE70198006840F6BD
:104E50000041C4F2000188422DD0FFE701980068AC
:104E600040F60041C5F20001884224D0FFE70198D6
:104E7000006843F20041C4F2010188421BD0FFE701
:104E80000198006843F20041C5F20101884212D046
:104E9000FFE70198006844F20001C4F20101884272
:104EA00009D0FFE70198006844F20001C5F2010152
:104EB000884219D1FFE70198006880680721C0F295
:104EC000010108400090009806280CD0FFE70098E8
:104ED000B0F5803F07D0FFE701980168086840F00F
:104EE00001000860FFE706E001980168086840F0EB
:104EF00001000860FFE700200290FFE7029803B07E
:104F00007047000081B0009001B0704780B584B058
:104F1000039003980068C0680290039800680069D5
:104F200001909DF804008007002824D5FFE79DF834
:104F30000800800700281DD5FFE7039801686FF07F
:104F40000200086103990120C86103980068806924
:104F5000800720B1FFE70398FFF7D4FF06E003982E
:104F600000F054F9039800F055F9FFE70399002089
:104F7000C861FFE7FFE79DF804004007002825D53A
:104F8000FFE79DF80800400700281ED5FFE70398BB
:104F900001686FF00400086103990220C86103985A
:104FA0000068806910F4407F04D0FFE70398FFF7A2
:104FB000A9FF06E0039800F029F9039800F02AF908
:104FC000FFE703990020C861FFE7FFE79DF80400B1
:104FD0000007002824D5FFE79DF8080000070028F7
:104FE0001DD5FFE7039801686FF008000861039979
:104FF0000420C86103980068C069800720B1FFE7FA
:105000000398FFF77FFF06E0039800F0FFF803988E
:1050100000F000F9FFE703990020C861FFE7FFE710
:105020009DF80400C006002825D5FFE79DF808007C
:10503000C00600281ED5FFE7039801686FF0100036
:10504000086103990820C86103980068C06910F4DA
:10505000407F04D0FFE70398FFF754FF06E0039872
:1050600000F0D4F8039800F0D5F8FFE7039900208A
:10507000C861FFE7FFE79DF80400C00778B1FFE7CC
:105080009DF80800C00748B1FFE7039801686FF07A
:1050900001000861039800F0C1F8FFE7FFE70198FD
:1050A00000F08000802806D0FFE79DF8050080060C
:1050B000002810D5FFE79DF808000006002809D554
:1050C000FFE7039801686FF4025008610398FFF747
:1050D00009FEFFE7FFE79DF80500C00780B1FFE785
:1050E0009DF808000006002809D5FFE7039801682D
:1050F0006FF4807008610398FFF7F0FDFFE7FFE7AA
:105100009DF804004006002810D5FFE79DF8080030
:105110004006002809D5FFE7039801686FF04000BA
:105120000861039800F08CF8FFE7FFE79DF80400A2
:105130008006002810D5FFE79DF8080080060028AB
:1051400009D5FFE7039801686FF020000861039814
:10515000FFF7CCFDFFE7FFE79DF80600C00600283B
:1051600010D5FFE79DF80A00C006002809D5FFE723
:10517000039801686FF4801008610398FFF7BEFD83
:10518000FFE7FFE79DF806008006002810D5FFE73F
:105190009DF80A008006002809D5FFE703980168FA
:1051A0006FF4001008610398FFF7A4FDFFE7FFE725
:1051B0009DF806004006002810D5FFE79DF80A007C
:1051C0004006002809D5FFE7039801686FF48000C6
:1051D00008610398FFF796FDFFE7FFE79DF80600DB
:1051E0000006002810D5FFE79DF80A0000060028F9
:1051F00009D5FFE7039801686FF400000861039880
:10520000FFF784FDFFE7FFE704B080BD81B00090A9
:1052100001B0704781B0009001B0704780B582B096
:1052200001900198006844F60001C4F2010188422F
:1052300003D1FFE7FCF748FCFFE702B080BD0000A8
:1052400081B0009001B0704782B00190ADF80210BB
:1052500002B0704781B0009001B0704781B00090FB
:1052600001B0704780B584B00390039803F006F84E
:105270000290029808B9FFE744E00298406808B934
:10528000FFE73FE0039800F03FF801900020009016
:105290009DF80400C00748B1FFE7009840F4007093
:1052A0000090029841680120C871FFE79DF8040052
:1052B0004007002809D5FFE7009840F4807000906F
:1052C0000298416801208871FFE79DF804000007FB
:1052D000002809D5FFE7009840F0200000900298D0
:1052E000416801204871FFE702984068006848B1B2
:1052F000FFE7009830B1FFE7029840680168009826
:105300008847FFE704B080BD81B000900098D0F8D6
:10531000900001B07047000080B58EB00D900D98E0
:105320000068C0690C900D98006800680B900D989B
:10533000006880680A900C9840F60F0108400990B8
:105340000998E0B9FFE79DF830008006002815D5E0
:10535000FFE79DF82C008006002806D4FFE79DF8A3
:105360002B00C006002809D5FFE70D98406F20B13B
:10537000FFE70D98416F8847FFE757E2FFE709987D
:10538000002800F0F980FFE70A980121C1F200012E
:10539000084209D1FFE70B9840F22011C0F200410A
:1053A000084200F0E980FFE79DF83000C00788B1AF
:1053B000FFE79DF82D00C00760B1FFE70D98016879
:1053C000012008620D99D1F8900040F00100C1F869
:1053D0009000FFE79DF830008007002811D5FFE717
:1053E0009DF82800C00760B1FFE70D980168022012
:1053F00008620D99D1F8900040F00400C1F89000C7
:10540000FFE79DF830004007002811D5FFE79DF821
:105410002800C00760B1FFE70D980168042008620A
:105420000D99D1F8900040F00200C1F89000FFE71C
:105430009DF830000007002819D5FFE79DF82C00E3
:105440008006002807D4FFE70A980121C1F2000175
:1054500008420CD0FFE70D980168082008620D99FA
:10546000D1F8900040F00800C1F89000FFE79DF8E7
:1054700031000007002813D5FFE79DF82F004007F3
:1054800000280DD5FFE70D9801684FF40060086211
:105490000D99D1F8900040F02000C1F89000FFE78E
:1054A0000D98D0F89000002865D0FFE79DF83000F7
:1054B0008006002815D5FFE79DF82C0080060028FF
:1054C00006D4FFE79DF82B00C006002809D5FFE7AA
:1054D0000D98406F20B1FFE70D98416F8847FFE7B7
:1054E000FFE70D98D0F8900008900D98006880684C
:1054F00000F04000402806D0FFE79DF8200010F0A3
:10550000280F2FD0FFE70D9802F02EFE0D980068AF
:1055100080684006002820D5FFE70D98D0F880006D
:10552000B0B1FFE70D98D0F8801048F24910C0F6EE
:105530000000C8660D98D0F88000FBF78BF930B1F9
:10554000FFE70D98D0F88000C16E8847FFE703E0C1
:105550000D98FFF787FEFFE703E00D98FFF782FE47
:10556000FFE707E00D98FFF77DFE0D990020C1F8D9
:105570009000FFE7FFE759E10D98C06E012840F069
:105580000B81FFE79DF83000C006002840F1048140
:10559000FFE79DF82C00C006002840F1FD80FFE7E2
:1055A0000D980168102008620D9800688068400618
:1055B000002840F18F80FFE70D98D0F88000006848
:1055C000806CADF81E00BDF81E00002867D0FFE714
:1055D000BDF81E000D99B1F85C1088425FDAFFE754
:1055E000BDF81E000D99A1F85E000D98D0F880005E
:1055F000006D812846D0FFE7FFE7FFE70D980068C0
:1056000050E8000F20F480700690FFE706990D988F
:10561000026842E800100028F0D1FFE7FFE7FFE74B
:10562000FFE70D98006850E8020F20F00100059098
:10563000FFE705990D98026842E802100028F0D1B2
:10564000FFE7FFE70D992020C1F88C000D9900209D
:10565000C866FFE7FFE70D98006850E8000F20F0EC
:1056600010000490FFE704990D98026842E80010CA
:105670000028F0D1FFE7FFE70D98D0F88000FBF796
:105680006BF8FFE70D99022008670D98B0F85C10E1
:10569000B0F85E20891A89B2FFF7D6FD19E0BDF88F
:1056A0001E000D99B1F85C10884211D1FFE70D98EA
:1056B000D0F88000006D812809D1FFE70D99022004
:1056C00008670D98B0F85C10FFF7BEFDFFE7FFE735
:1056D000FFE7ABE00D99B1F85C00B1F85E10401A3D
:1056E000ADF80E000D98B0F85E00002853D0FFE72B
:1056F000BDF80E0000284ED0FFE7FFE7FFE70D984A
:10570000006850E8000F20F490700290FFE70299C3
:105710000D98026842E800100028F0D1FFE7FFE78B
:10572000FFE7FFE70D98006850E8020F4FF6FE71A3
:10573000CEF6FF7108400190FFE701990D980268CD
:1057400042E802100028EDD1FFE7FFE70D99202085
:10575000C1F88C000D990020C8660D994867FFE7D5
:10576000FFE70D98006850E8000F20F0100000904F
:10577000FFE700990D98026842E800100028F0D178
:10578000FFE7FFE70D99022008670D98BDF80E109E
:10579000FFF75AFDFFE749E09DF8300000060028BA
:1057A00015D5FFE79DF82C000006002806D4FFE77A
:1057B0009DF82A000006002809D5FFE70D98806FA4
:1057C00020B1FFE70D98816F8847FFE72EE09DF835
:1057D0003000400600280AD5FFE79DF82C0040065F
:1057E000002804D5FFE70D9802F00EFD1EE09DF89D
:1057F0003200000600280AD5FFE79DF82F0040067A
:10580000002804D5FFE70D98FFF728FD0EE09DF86E
:105810003300C00750B1FFE79DF82F0000060028B5
:1058200004D5FFE70D98FFF715FDFFE70EB080BD2B
:1058300080B582B00190019802F020FD00900098A0
:1058400008B9FFE710E00098406808B9FFE70BE0EF
:1058500000984068006808B9FFE705E000984068D4
:10586000016809208847FFE702B080BDFFE7FEE737
:1058700080B541F2D830C2F20000FBF741FB80BD99
:1058800080B541F2D830C2F20000FBF7A1FB80BD29
:1058900080B582B001900198C06D00900098806B37
:1058A00028B1FFE70098816B0020C866FFE70098E9
:1058B000C06B28B1FFE70098C16B0020C866FFE706
:1058C000009801F02DFB02B080BD000080B582B0D1
:1058D00001900198C06D009000980168486840F4FC
:1058E000004048600098102100F038FA02B080BDF6
:1058F00080B584B003900398C06D02900298C06A8E
:1059000001900298C06B0068806C00900298C06B98
:10591000FAF78AFE009910FA81F078B9FFE701984A
:1059200010F5803F0AD0FFE702980168086820F46C
:1059300000400860029800F0CFFD00E0FFE704B0EF
:1059400080BD000080B584B003900398C06D0290C4
:105950000298C06A01900198B0F1807F03D0FFE700
:10596000019850B9FFE702980168086820F4804068
:105970000860029800F0B0FD00E0FFE704B080BDD1
:1059800083B00290ADF8061000200090BDF806002C
:10599000C00788B1FFE7009840F0420000900298ED
:1059A000406C00F02800282805D0FFE7009840F060
:1059B000B0000090FFE7FFE7BDF806008007002871
:1059C00011D5FFE7009840F0440000900298406C29
:1059D00000F02800282805D0FFE7009840F0B0002C
:1059E0000090FFE7FFE7BDF806000004002805D59A
:1059F000FFE7009840F0B8000090FFE7BDF8060010
:105A0000102805D1FFE7009840F090000090FFE7D4
:105A1000BDF80600202805D1FFE7009840F02000DF
:105A20000090FFE7BDF80600402805D1FFE7009889
:105A300040F040000090FFE7009A02980168086873
:105A40009043086003B0704783B00290ADF8061031
:105A5000002000900298406B46F29551C0F600017C
:105A6000884247D0FFE70298406B46F65121C0F6C6
:105A7000000188423ED0FFE70298406B46F2B571C4
:105A8000C0F60001884235D0FFE7BDF806000004EB
:105A9000002805D5FFE7009840F0B8000090FFE728
:105AA000BDF80600C00728B1FFE7009840F0F200FB
:105AB0000090FFE7BDF806008007002805D5FFE746
:105AC000009840F0F4000090FFE7BDF806001028B1
:105AD00005D1FFE7009840F090000090FFE7BDF887
